:020000041000EA
:1000000000B5324B212058609868022188439860DF
:10001000D860186158612E4B002199600221596106
:100020000121F02299502B49196001219960352056
:1000300000F044F80222904214D00621196600F024
:1000400034F8196E01211966002018661A6600F04E
:100050002CF8196E196E196E052000F02FF8012189
:100060000842F9D1002199601B49196000215960AB
:100070001A491B48016001219960EB211966A021F2
:10008000196600F012F800219960164914480160C1
:100090000121996001BC002800D000471248134993
:1000A000086003C880F30888084703B5996A0420EC
:1000B0000142FBD001200142F8D103BD02B5186610
:1000C0001866FFF7F2FF186E186E02BD00000240BE
:1000D000000000180000070000035F00212200005C
:1000E000F4000018222000A00001001008ED00E03C
:1000F00000000000000000000000000074B24E7A12
:1001000000200420F7010010C3010010C5010010F9
:10011000C1010010C1010010C1010010C101001097
:10012000C1010010C1010010C1010010C701001081
:10013000C1010010C1010010C9010010CB01001065
:10014000CD010010CD010010CD010010CD01001037
:10015000CD010010CD010010CD010010CD01001027
:10016000CD010010CD010010CD010010CD01001017
:10017000CD010010CD010010CD010010CD01001007
:10018000CD010010CD010010CD010010CD010010F7
:10019000CD010010CD010010CD010010CD010010E7
:1001A000CD010010CD010010CD010010CD010010D7
:1001B000CD010010CD010010CD010010CD010010C7
:1001C00000BE00BE00BE00BE00BE00BEEFF3058054
:1001D000103800BEF2EB8871F4850110188601100A
:1001E0003802001090A31AE71E481F49086006C88D
:1001F00081F3088810471D480068002801D019487D
:10020000F3E70DA40ECC002902D000F012F8F9E7B4
:100210001749184A002000E001C19142FCD116495B
:100220008847164988471649884700BEFDE701C937
:1002300001C29A42FBD3704718860110D0000020FB
:100240003023002078A801100000042000000420C2
:1002500078A8011000100420001004200000000005
:10026000704700000000000008ED00E0000000D032
:1002700030230020C8390220A1850010811300100E
:1002800099850010F8B5C04606480749091A8B1031
:10029000C90FC91810B5491003D0044B002B00D06A
:1002A000984710BD302300203023002000000000BC
:1002B000054B10B5002B03D00449054800E000BFF2
:1002C000FFF7E2FF10BDC04600000000A834002088
:1002D000F866011010B5114808F04EFB104808F000
:1002E0004BFB104808F048FB0F4808F045FB0F484F
:1002F00008F042FB0E4808F03FFB0E4808F03CFBBC
:100300000D4808F039FB0D4808F036FB0C4808F0A2
:1003100033FB0C4808F0B4FB10BDC046F866011072
:1003200014670110386701106067011080670110C1
:10033000B0670110E46701102068011048680110DF
:100340008C680110BC680110F0B5CE46474680B5F8
:10035000154885B001F034F9144B804699460024C5
:100360000025134E134F0FE00F4800220023414693
:10037000029603970094019501F052F8C82003F00B
:1003800047F9322003F044F94B461B78002BEBD1A0
:1003900000220023414602940395009601970248EB
:1003A00001F0BAF8EDE7C04600002050BD39022048
:1003B0009A9999999999B93F10B5194C1949002002
:1003C000A54415F0CFFE011E26D0012240A80FF053
:1003D000BDFC041E16D1144C03E06946200008F051
:1003E0004FFB8021684640AA490013F0A9F8002875
:1003F000F3D140A810F004FD041E03D1D8239B00C4
:100400009D4410BD200014F027FD084B0100220080
:10041000180008F035FBF1E7054808F0ADFAEDE704
:10042000A0FCFFFFD068011000690110E86801100E
:10043000D4680110F0B5CE46474680B5284C83B04D
:100440002100002015F08EFE002841D015F0CCF9D7
:1004500021000500002015F085FE002838D015F099
:10046000C3F921000600002015F07CFE00282FD0E3
:1004700015F0BAF921000700002015F073FE0028DE
:1004800026D015F0B1F921008046002015F06AFE53
:1004900000281DD015F0A8F921008146002015F094
:1004A00061FE002814D015F09FF9FA22D2006B46A5
:1004B000944600221A7142465A714A466744D871DE
:1004C00068461F809E70DD709A7114F055FE02E040
:1004D000044808F051FA03B0C0BCB946B046F0BDBC
:1004E000D0680110D468011070B500202A4915F0B9
:1004F00039FE061E45D0002409E0200000F076FFFA
:100500003100006815F094FE002809D0013400F095
:100510006BFF8442F1D33100204808F0B1FA70BD7E
:10052000200000F063FF0022310000200FF02AFBC2
:10053000041E01D01CE0013400F056FF844225D295
:10054000200000F053FF3100006815F071FE051E19
:10055000F1D1200000F04AFFA82301229B00C554DE
:10056000C36901681343C3610D4808F089FAD6E7EF
:1005700014F072FC0B4B01002200180008F080FA06
:10058000CDE7002000F032FF0668B4E7A823002280
:100590009B001A70FFDEC046D0680110046901108C
:1005A0004469011028690110F0B5C64600B5374C02
:1005B0003749A544002015F0D5FD18AC0500FF22F1
:1005C00000212000002D45D006F016FB2B78002BD3
:1005D00042D029002F4808F053FA5822002102A8DF
:1005E00006F00AFB902258AC00215200200006F0D1
:1005F00003FB2A002100284B02A810F0CBFF051EA8
:100600003AD1264B264D9846264EA37E002B18D075
:10061000237B2F00DA0603D43700DB0700D44746DC
:1006200022686368BD2149000092019369443A0041
:100630001D4808F025FA210002A810F051FE0028FC
:10064000E3D002A810F0CEFDA0239B009D4480BC07
:10065000B846F0BD06F0D0FAFF21200010F00CFCE7
:100660002500061EB5D014F0F7FB104B0100320038
:10067000180008F005FAE7E714F0EEFB0C4B010058
:100680002A00180008F0FCF9DEE7C04680FDFFFFF5
:10069000D0680110A4690110BC69011078690110CB
:1006A0005C69011068690110DC690110886901103A
:1006B000C069011070B5052802D006282DD070BD84
:1006C00005F0A4FA00291FD0FA220023920005F0B9
:1006D00041FE002529001A4E040032687368801A12
:1006E0009941002901D1C8280BD90121154B164881
:1006F0001A784A401A701B78002B0AD0093101F091
:100700007DFC34607560DAE7FA21890005F0E4FDCC
:10071000DFE7092101F072FCF3E70C4800F050FF1D
:1007200001000A4800F0E4FE074C0021200001F01F
:1007300017F9200001F0CEF80021080005F08EFB2B
:10074000B8240020BC120020943800200000205063
:1007500070B50020194915F005FD051E29D00024AB
:1007600009E0200000F042FE2900006815F060FD5D
:10077000002809D0013400F037FE8442F1D329006B
:100780000F4808F07DF970BD200000F02FFE802397
:10079000002200212800DB0011F08AF8041EF2D0AC
:1007A00014F05AFB074B01002200180008F068F90A
:1007B000E9E7002000F01AFE0568D0E7D0680110D4
:1007C00004690110F469011030B50020224983B09A
:1007D00015F0C8FC051E39D0002409E0200000F007
:1007E00005FE2900006815F023FD00280CD0013417
:1007F00000F0FAFD8442F1D3002329001748019349
:1008000008F03EF903B030BD200000F0EFFD3830B5
:1008100001906946280001AA10F048FF041E0CD17F
:10082000019B009A5989DB6A4A43023B59435208AB
:1008300049080B4808F024F9E4E714F00DFB094BD4
:1008400001002200180008F01BF9DBE7002000F08F
:10085000CDFD0568C0E7C046D068011004690110ED
:10086000286A01100C6A011070B50020284915F0A3
:1008700079FC051E42D0002409E0200000F0B6FDFE
:100880002900006815F0D4FC002809D0013400F0DC
:10089000ABFD8442F1D329001E4808F0F1F870BD89
:1008A000200000F0A3FD0122290038300FF06AF982
:1008B000041E01D019E0013400F096FD844222D2DA
:1008C000200000F093FD2900006815F0B1FC00281D
:1008D000F1D1200000F08AFDA82301229B000168CD
:1008E000C2540D4808F0CCF8D9E714F0B5FA0B4B18
:1008F00001002200180008F0C3F8D0E7002000F043
:1009000075FD0568B7E7A82300229B001A70FFDE7B
:10091000D068011004690110746A01105C6A01104A
:10092000F0B5D6464F464646C0B52A4C2A48A5449F
:1009300008F022F8294B0A2219000EA89A460FF057
:1009400005FA002842D1264B00259946E023DB0119
:1009500098460427234C244E424623681340234ADA
:10096000136080223760520023681342FCD0636812
:1009700001351B042A0049461B0C01A807F09CFD09
:1009800001A815F099FC6B46020001A90EA80FF012
:1009900061FF00280CD1642005F024F8802DDBD104
:1009A0000EA810F02DFA5146114808F069F805E03C
:1009B000104807F0E1FF0EA810F022FAA6239B00D2
:1009C0009D44E0BCBA46B146A846F0BD0A4807F0CF
:1009D000D3FFF3E768FDFFFFA46A0110A81200200F
:1009E000246B011000C0044000E0044000D004402B
:1009F0006C6B01102C6B0110D86A011070B5184C8B
:100A00000600A5440100012222A80FF09FF900284A
:100A100021D13100134808F033F802AC124D07E041
:100A2000019B002B0CD0E0542100280008F028F88E
:100A30007F22210001AB22A80FF0D6FD0028EFD0C5
:100A400022A810F0DDF93100084808F019F8BA239F
:100A50009B009D4470BD064807F08EFFF7E7C04637
:100A600018FDFFFF0C6C011000690110286C0110CB
:100A7000946B0110F0B5DE4657464E464546E0B54C
:100A80009F4CA048A54407F077FF9F4F0A223900EA
:100A900038A80FF05BF9002800D026E19B4838A960
:100AA00012F084FF002800DA23E100239B46984BD4
:100AB000B94698465F46464616AB9A46954B139301
:100AC00037223B2308A9891808AA94460B703721BE
:100AD0003A3B61440A0000936821300014F030FD75
:100AE000002106238846524600913000683114F0F8
:100AF00031FD51460B883722D9BA8B4651464323E4
:100B00004D888C8808A9891808AA94460B7037214B
:100B1000423B61440A0000936821300014F010FD4C
:100B200041460623524600913000683114F012FD10
:100B30003722412308A98A188C4613703722403B7C
:100B4000624468210093300014F0FAFC4346524698
:100B5000682100933000023314F0FCFC53461B88DC
:100B60005846DBBA984605F08DFFE221890505F06D
:100B70007CFFEDBA8346280005F084FFE221890559
:100B800005F073FFE4BA051C200005F07BFFE221AD
:100B9000890505F06AFF041C281C05F09BFF0C90DA
:100BA0000D91201C05F096FF02000B000C980D998A
:100BB0000E920F9305F0AEFE10901191291C281C87
:100BC00005F053FF211C051C201C05F04EFF011CE5
:100BD000281C05F033FF05F07DFF05F093FE0D00A6
:100BE0008021040009065944080005F073FF220023
:100BF0002B0005F08FFE040040460D0005F036FE88
:100C00000022454B05F0ADFD0022444B05F0A4FD4C
:100C100000220A900B91424B2000290005F0BBFDF9
:100C2000404A414B05F09DFD05F064FE05F052FF82
:100C300000220890099110981199394B05F0ABFDED
:100C4000384A394B05F08DFD05F054FE05F042FFA2
:100C50000E9B0F9C069007915846049305940C9B9D
:100C60000D9C0293039405F035FF0137009001912C
:100C70003B008021139A18A807F034FC00230200DF
:100C800018A938A80FF0E6FD002818D10A2138006D
:100C900005F0FAFA002907D0642004F0A3FE642FBF
:100CA00000D00DE74F4610E03900204807F0E8FE7D
:100CB000642004F097FE642F00D001E7F2E7BB4602
:100CC0001B4859464F4607F0DBFE38A810F098F84D
:100CD0003900184807F0D4FED1239B009D44F0BC96
:100CE000BB46B246A946A046F0BD134807F044FEF5
:100CF000F2E7124807F040FE38A810F081F8EBE761
:100D0000BCFCFFFF506C01107C6C01108C6C01105E
:100D1000B01D0020E06C0110004075400000324022
:100D200000806640182D4454FB210940386D0110A5
:100D3000046D0110586D0110D86A0110B86C0110D3
:100D4000F0B5DE4657464E464546E0B5E248A3B00C
:100D500007F012FEE14807F093FEE14B18001793ED
:100D600007F08EFE07F05AFDFFF7B4FADD4BDE4DBB
:100D70000993DE4BDE4E9846DE4BDF4F0A93DF4B86
:100D80001D93DF4B1693DF4B1893DF4B1993DF4B0B
:100D90001A93DF4B1B93DF4B1C93DF4B1E93DF4BF0
:100DA0002093DF4B2193DF4B1F93DF4B1593DF4BDA
:100DB0001193DF4B0D93DF4B0E93DF4B9946DF4BC7
:100DC0001393DF4B1493DF4B0F93DF4B1093DF4BE9
:100DD0001293DF4B0B93DF4B0C93DF4B9B46DF4BA8
:100DE0009A46DF4B0093DF4B0193DF4B0293DF4BBF
:100DF0000393DF4B0493DF4B0593DF4B0693DF4BED
:100E00000793DF4B089340E007F06CFD07F006FD09
:100E10000D2C00D1B7E043461B68082C00D195E0AB
:100E20007F2C00D192E0FE2B04D80A9AD45442467B
:100E300001331360612C00D191E0622C69D0632CE6
:100E400000D0A1E10D9807F097FD0221280001F0E4
:100E5000D5F801233370FFF7A7FBCA4802F0D8FB8F
:100E6000FA21FA2249000A2001F058F9280000F07E
:100E700095FF00230E98337007F07EFD380007F0D1
:100E8000FFFDFA20400004F0ADFD002007F0DEFC7D
:100E90000400831CF5D06022099B1B5C9343B3D1F3
:100EA0000D286BD0082800D1B5E17F207F2CC1D15F
:100EB00007F018FD07F0B2FC43461B68002BE0D09A
:100EC0004246013B136000220A99CA54672C00D0A5
:100ED000BBE00B9807F050FD0621280001F08EF8CA
:100EE00001233370FFF734FCA64802F091FBFA218E
:100EF000FA2249000A2001F011F9280000F04EFF03
:100F000000230C98337007F037FD380007F0B8FD68
:100F1000B7E7119807F030FD0121280001F06EF8C5
:100F200001233370FFF7E0FA964802F071FBFA21D3
:100F3000FA2249000A2001F0F1F8280000F02EFF03
:100F400000233800337007F09BFD9AE7002B98D000
:100F50004246013B136000220A99CA5491E72800D7
:100F600000F0B4FF159807F007FD0021280001F0FC
:100F700045F801233370FFF777FCD5E70D2007F024
:100F8000B1FC07F04BFC0A2007F0ACFC07F046FC74
:100F900080210A98490015F0D5F8002800D13CE1DD
:100FA00016990A9815F0DEF8041E3FD00100189833
:100FB00015F03EF9002800D135E12100199815F00F
:100FC00037F9002800D138E121001A9815F030F9DE
:100FD000002800D133E121001B9815F029F90028E1
:100FE00000D12EE121001C9815F022F9002800D133
:100FF00029E123786C2B06D16378732B03D1A37876
:10100000002B00D121E121001E9815F011F90028D4
:1010100000D11CE12100209815F00AF907220028D0
:1010200000D101E121001F9807F02AFD002342466C
:1010300013608022002152000A9805F0DDFD179808
:1010400007F01EFD07F0EAFB1BE7692C0AD1072118
:10105000280000F0D3FF01234A4613703370FFF7D6
:1010600009FD61E7682C00D00BE70821280000F09B
:10107000C5FF01235846337007F07EFC504607F049
:101080007BFC009807F078FC019807F075FC02984B
:1010900007F072FC039807F06FFC049807F06CFCF3
:1010A000059807F069FC069807F066FC079807F0BA
:1010B00063FC089807F0E4FC324802F0A9FAFA2130
:1010C000FA220A20490001F029F8280000F066FE03
:1010D00000233370D5E6C046806D0110946D011079
:1010E0009C6D0110F1840110943800209834002088
:1010F000BD390220342F0020046E0110A06D0110B4
:10110000D0680110A46D0110AC6D0110B46D011018
:10111000BC6D0110C46D0110CC6D0110D06D0110BB
:1011200068770110D86D0110F06D0110286E011064
:10113000486E0110706E0110BC1200207C6C011012
:10114000A8120020886E0110A86E0110C86E011050
:10115000E06E0110186F0110F8660110146701109D
:10116000386701106067011080670110B0670110D7
:10117000E467011020680110486801108C680110B4
:10118000BC680110DC050000642C22D1032128007A
:1011900000F034FF012333704B461B78002B14D032
:1011A0001398FFF72BFC3A4802F032FA9621C82236
:1011B00049000A2000F0B2FF280000F0EFFD0023F4
:1011C0000F98337007F05CFC5BE61498FFF716FC91
:1011D000E9E7652C3DD1109807F0CEFB04212800EB
:1011E00000F00CFF01233370FFF7EEFA284802F0FD
:1011F0000FFAFA21FA2249000A2000F08FFF280096
:1012000000F0CCFD00231298337007F0B5FB3800D6
:1012100007F036FC35E608204AE61D9807F030FC5A
:1012200007F0FCFA2DE6002253009B18219A9B0040
:10123000944663445B689847F8E60122F4E702228B
:10124000F2E70322F0E70422EEE70522ECE70622AC
:10125000EAE7662C00D039E60521280000F0CEFE32
:1012600000244B461C7001233370FFF759FB0848DC
:1012700002F0CEF9FA21FA2249000A2000F04EFFCE
:10128000280000F08BFD3800347007F0F9FBF8E51A
:10129000DC05000030B5052085B0D02403F0CAFC81
:1012A00020232406A36200220121052003F034FC40
:1012B0002C4D01222B000421052003F053FC0620B5
:1012C00003F0B8FC40230022A3620121062003F0B2
:1012D00023FC01222B000421062003F043FC0A20FA
:1012E00003F0A8FC8023DB0063621F4C1F49200031
:1012F00014F0FEF80321002003F0F4FB0321012089
:1013000003F0F0FB00220121002003F005FC002285
:101310000121012003F000FC154807F02DFB1548C2
:1013200007F02AFB00256A46134B682193812000B1
:1013300003AA0223009514F003F9642004F052FB81
:101340006B4668215D7303AA02232000009514F008
:10135000F7F80A2004F046FB084800F00FFC05B03F
:1013600030BDC046B5060010B01D0020801A060032
:10137000346F0110486F01106B80FFFF943800201C
:1013800030B583B0FFF786FF07F05CFA104804F031
:1013900029FB13F06DFD13F067FF0E4800F048FCC9
:1013A00000250124C02200230B4952000B4801955F
:1013B000009402F015F8802200230949D200094860
:1013C0000195009402F00CF802F01CF803F078F993
:1013D0008813000094380020606F0110490300104A
:1013E000706F0110410D001001207047012805D8D1
:1013F000AE239B005843024BC01870470020FCE707
:10140000C012002001207047012805D803011818D8
:10141000024B8000C01870470020FCE778150020C0
:10142000F0B557464E46DE464546E0B583B00092DD
:1014300001932C4B07001A680124100093462A4A96
:1014400080008258994690460A0004311032944038
:1014500046468A009246C0360022306871680023F2
:1014600005F0EEF9002500281ED00C980D990022F9
:101470001E4B05F090F905F035FA00221B4B0506CE
:101480000E980F9905F087F905F02CFAC0B200020A
:101490000022164B05430098019905F07CF905F0F0
:1014A00021FAC0B20004054322007B681A401C42A6
:1014B000FAD15346DD513300083BB04501D01E0040
:1014C000CAE7594602240131C80F8C4242414B46BB
:1014D00052421140196003B0F0BCBB46B246A94667
:1014E000A046F0BDC8340020C877011000E06F406E
:1014F0000B000122103330B59A40192404318D00BD
:101500001100436819401A42FAD1013CA4B2295093
:10151000002CF5D130BDC046F0B55746DE4680B54B
:1015200083B0009201930B00012710339F40C0232A
:10153000214E5B4204319B468B009A463300B344F4
:1015400005003E001F00386879680022002305F07E
:1015500077F9002400281ED00A980B990022174B17
:1015600005F019F905F0BEF90022144B04060C9899
:101570000D9905F010F905F0B5F9C0B2000200228E
:101580000E4B04430098019905F005F905F0AAF9FE
:10159000C0B2000404436B681E42FCD153465C5148
:1015A0003B00083BBB4501D01F00CCE703B0C0BCEB
:1015B000BB46B246F0BDC046D818002000E06F40E0
:1015C000F0B5CE4647460500FA2080B58DB004AC94
:1015D000220008AB03A9400202F01EFF002800D041
:1015E0007CE04149280013F0DBFF01218046280000
:1015F00013F0BAFF00238022E360F82352025B025B
:1016000004920593C0231B03070010222100A3604E
:1016100008A805F0F7FA434642460633D2011B03F9
:10162000134308A910222000099305F0EBFA2F4B71
:101630000720E3602E4BE918090D0631C9B203F00B
:1016400051FA0123072200933900280014F024F8EE
:10165000052002F0FFFD05F005F9264B002205F0FC
:1016600080F805F047F9EC21890505F0E7F9814696
:1016700005F02AFA86B20023002E0ED0300005F0C5
:10168000FBF9011C484605F0D6F98721C90505F08C
:10169000ECF905F019FAC3B21B023604A2681E4326
:1016A000154B04961A40154B39001343A36062682A
:1016B000134B28001A4080239B0213436360424669
:1016C000230014F043F80123BB4038002A68134379
:1016D0002B600DB0C0BCB946B046F0BD089A049965
:1016E000039802F0BDFD7CE7D4770110E000000410
:1016F0000000E0AF80845E41FFFFF5010000027052
:10170000FFFF01FF70B506000025AE2382B014363E
:101710000400C178437532004068AC3B009513F07B
:101720000FFF2023E1786375320060681E3B00954F
:1017300013F006FF0123E17863753200606801331E
:10174000009513F0FDFE4023E17863753200606878
:101750003E3B009513F0F4FEA123E178637532005F
:1017600060689F3B009513F0EBFEA823E17863755A
:1017700032006068A63B009513F0E2FE3F23E1785B
:101780006375320060683D3B009513F0D9FEC823B5
:10179000E178637532006068C63B009513F0D0FEB7
:1017A000D323E178637532006068D13B009513F074
:1017B000C7FEE1783200606865750223009513F07A
:1017C000BFFEDA23E178637532006068D83B00958C
:1017D00013F0B6FE1223E178637532006068103BA7
:1017E000009513F0ADFED523E17863753200606893
:1017F000D33B009513F0A4FE8023E178637532009B
:1018000060687E3B009513F09BFED923E1786375F9
:1018100032006068D73B009513F092FEF123E17827
:10182000637532006068EF3B009513F089FEDB239F
:10183000E178637532006068D93B009513F080FE53
:101840003023E1786375320060682E3B009513F019
:1018500077FE8123E1786375320060687F3B0095F5
:1018600013F06EFEFF23E178637532006068FD3B84
:10187000009513F065FEA423E1786375320060687B
:10188000A23B009513F05CFEA623E178637532005D
:101890006068A43B009513F053FE8D23E1786375D7
:1018A000320060688B3B009513F04AFE1423E17808
:1018B000637532006068123B009513F041FEAF2360
:1018C000E1786375606832000095AD3B13F038FE37
:1018D00002B070BD70B5060000252123040082B05F
:1018E0001436C1784375320040681F3B009513F0F1
:1018F00027FEE1783200606865750223009513F0D9
:101900001FFE2378E178013B637532006068022393
:10191000009513F015FE2223E178637532006068AC
:10192000203B009513F00CFEE1783200606865758D
:101930000223009513F004FEA378E178013B637560
:10194000320060680223009513F0FAFD2369E26813
:10195000E1786068009513F0F3FD02B070BDC046F9
:101960004378F0B5002B1FD0072300269C460127A3
:10197000047800291ED1002C16D063463D00334068
:101980009D400023ED43F2080132C4680133A15C9D
:10199000DBB22940A154047808329C42F5D80136C4
:1019A0004378F6B2B342E6D8F0BD01364378F6B2DA
:1019B000B342F9D9002CF7D063463D0033409D4037
:1019C0000023F2080132C4680133A15CDBB2294371
:1019D000A154047808329C42F5D8E6E7F0B5DE461B
:1019E00057464E464546E0B589B0872900D1BEE04E
:1019F000802900D998E0CC005E496418D71DFFB259
:101A0000FF00791C0591911DC9B2C90001318C46B6
:101A100008218846A04441460791D10001318846FB
:101A2000511CC9B2C90001318946911CC9B2C90013
:101A300001310291D11CC9B2C90001310191111DBE
:101A40000532C9B2D2B2C900D200013101321B1B2A
:101A50000126A3460491039206934FE0A5434C460A
:101A60003D70E518C4686719655D0224144200D012
:101A70007AE08D43029C3D70E518C4686719655D86
:101A8000042414426DD18D43019C3D70E518C46857
:101A90006719655D0824144260D18D43049C3D7034
:101AA000E518C4686719655D1024144253D18D434D
:101AB000039C3D70E518C4686719655D20241442D5
:101AC00046D18D4364463D701D19C4686719655D34
:101AD0004024144239D18D43059C3D70A246C7680D
:101AE0005344FD18D209FB5C002A1FD18B432B7095
:101AF00001239A46079BD3449B451FD05B461A7827
:101B0000069B444619005944C9B2CB08E518C4687D
:101B10006719655D0724214034008C40210016427E
:101B20009CD02543EDB29AE7124C67E70B432B702C
:101B300001239A46079BD3449B45DFD109B0F0BCF3
:101B4000BB46B246A946A046F0BD0D43EDB2C3E781
:101B50000D43EDB2B6E70D43EDB2A9E70D43EDB28B
:101B60009CE70D43EDB28FE70D43EDB282E7024CE7
:101B700044E7C046E0180020D81C0020F8B5040057
:101B8000274D2849280013F0B3FC03210E2002F052
:101B9000A9FF03210F2002F0A5FF002201210E2042
:101BA00002F0BAFF002201210F2002F0B5FF1E4B08
:101BB0001E48012123606560206104F0E3FF40239B
:101BC000037040332375E0602000FFF79BFD200089
:101BD000FFF780FE6378002B1ED0072300269C466B
:101BE00001272178002917D063463D0033409D40EE
:101BF000ED430023F208EDB20132E0680133815C6D
:101C0000DBB229408154217808328B42F5D301366A
:101C10006378F6B2B342E5D82000FFF75BFEF8BD6B
:101C2000A81D0020801A06008040083C0104000026
:101C3000F0B5C64600B543780400002B1ED007233C
:101C400000269C4601270178002917D063463D00F5
:101C500033409D40ED430023F208EDB20132E068CD
:101C60000133815CDBB229408154217808328B42F8
:101C7000F5D301366378F6B2B342E5D88026012366
:101C80000127414D7642E168CA5C3A43CA54E06894
:101C9000D91D425C083332434254AB42F3D1012296
:101CA0000023072794463A0060461A409040E668B1
:101CB000D9084D1CC2B2705D0133104370553348D2
:101CC000DBB28046E0684144455C2A434254402BE5
:101CD000E9D1032618252E4F14E02A0008353300D9
:101CE0002000EDB2FFF77AFE2A0023780832013790
:101CF0009A4202DB00250836F6B2330062780833D8
:101D0000934202DA39780029E7D119262025214F9C
:101D100014E02A00083533002000EDB2FFF75EFE24
:101D20002A002378083201379A4202DB0025083660
:101D3000F6B2330062780833934202DA3978002928
:101D4000E7D123260425144F14E02A000835330078
:101D50002000EDB2FFF742FE2A0023780832013757
:101D60009A4202DB00250836F6B233006278083367
:101D7000934202DA39780029E7D12000FFF7AAFD63
:101D800080BCB846F0BDC04601040000F903000065
:101D9000CC700110D8700110E4700110F0B5C64687
:101DA00000B543780400002B1ED0072300269C4674
:101DB00001270178002917D063463D0033409D403C
:101DC000ED430023F208EDB20132E0680133815C9B
:101DD000DBB229408154217808328B42F5D3013699
:101DE0006378F6B2B342E5D8802601230127334D4C
:101DF0007642E168CA5C3A43CA54E068D91D425C45
:101E0000083332434254AB42F3D101220023072767
:101E100094463A0060461A409040E668D9084D1C46
:101E2000C2B2705D0133104370552548DBB2804665
:101E3000E0684144455C2A434254402BE9D11926CD
:101E40002025204F14E02A00083533002000EDB291
:101E5000FFF7C4FD2A002378083201379A4202DBDB
:101E600000250836F6B2330062780833934202DA6E
:101E700039780029E7D123261C25134F14E02A00C6
:101E8000083533002000EDB2FFF7A8FD2A002378C3
:101E9000083201379A4202DB00250836F6B23300D9
:101EA00062780833934202DA39780029E7D12000BA
:101EB000FFF710FD80BCB846F0BDC046010400002D
:101EC000F9030000F470011000710110F0B5C6466E
:101ED00000B543780400002B1ED0072300269C4643
:101EE00001270178002917D063463D0033409D400B
:101EF000ED430023F208EDB20132E0680133815C6A
:101F0000DBB229408154217808328B42F5D3013667
:101F10006378F6B2B342E5D8802601230127334D1A
:101F20007642E168CA5C3A43CA54E068D91D425C13
:101F3000083332434254AB42F3D101220023072736
:101F400094463A0060461A409040E668D9084D1C15
:101F5000C2B2705D0133104370552548DBB2804634
:101F6000E0684144455C2A434254402BE9D119269C
:101F70002025204F14E02A00083533002000EDB260
:101F8000FFF72CFD2A002378083201379A4202DB42
:101F900000250836F6B2330062780833934202DA3D
:101FA00039780029E7D123261C25134F14E02A0095
:101FB000083533002000EDB2FFF710FD2A0023782A
:101FC000083201379A4202DB00250836F6B23300A8
:101FD00062780833934202DA39780029E7D1200089
:101FE000FFF778FC80BCB846F0BDC0460104000095
:101FF000F90300000C71011018710110F8B5474683
:10200000CE4680B5437804008846002B1ED00723B7
:1020100000269C4601270178002917D063463D0021
:1020200033409D40ED430023F208EDB20132E068F9
:102030000133815CDBB229408154217808328B4224
:10204000F5D301366378F6B2B342E5D843460A2B9E
:1020500059D82E4A9B009E5801228027012394467E
:102060002B4D7F426046E168CA5C0243CA54E06877
:10207000D91D425C08333A434254AB42F2D10722A5
:102080009446063A00239046624640461A409040E5
:10209000E768D9084D1CC2B2785D0133104378550A
:1020A0001C48DBB28146E0684944455C2A434254FF
:1020B000402BE9D1300014F0FFF88025C0002D1A24
:1020C0006D101C27EDB214E02A0008353B002000FB
:1020D000EDB2FFF783FC2A002378083201369A42DA
:1020E00002DB00250837FFB23B00627808339342D9
:1020F00002DA31780029E7D12000FFF7EBFBC0BC02
:10210000B946B046F8BD044EA6E7C046EC770110CC
:1021100001040000F90300004C6C0110F8B5CE4634
:1021200047460C00160080B58046154804F0ACF810
:10213000FA217443050047108900200004F0A4F838
:10214000FA2381469B009C4216DB434601269E40B3
:10215000D0231B0600249846ED174346380029007B
:102160005E6103F0CBFB4346380029009E610134D9
:1021700003F0C4FBA145F0DCC0BCB946B046F8BDD5
:1021800040420F00000000000000000000000000BE
:102190000B4A13681868203080F30988022080F306
:1021A0001488BFF36F8F3FBCAE4608BC04BC62B658
:1021B0001847C046C046C046C046C046C046C04696
:1021C000E0340020000000000000000000000000DB
:1021D000EFF30980164B1A6820381060F0C04446AF
:1021E0004D4656465F46F0C00D221207146E556EDE
:1021F000566F176F3038F0C008B572B601F068FA44
:1022000062B60CBC116808681030F0C8A046A94638
:10221000B246BB4680F309880D2212073038F0C859
:102220001466556656671767F0C81847C046C0461B
:10223000E034002010B502F043FAC046D02300B5C8
:102240001B061A6D83B0D20704D501219A6D1A6D51
:102250001142FBD1D023FF221B061A650023114A2D
:1022600001931168EFF3108C72B60B68002BFCD051
:10227000BFF35F8F00230C48126801680360BFF34F
:102280005F8F13608CF31088084B01AA186800F068
:1022900001FB019B002B03D08022054B52051A60E5
:1022A00003B000BDDC340020CC38022034390220D9
:1022B00004ED00E07047C04610B58024031F64049D
:1022C0001C60043B19600349043B1960143B40380F
:1022D0001A6010BD352200108022044B52051A608E
:1022E000BFF34F8FBFF36F8F7047C04604ED00E020
:1022F00072B6044A136801331360BFF34F8FBFF304
:102300006F8F7047C8380220034A1368013B13607F
:10231000002B00D162B67047C8380220EFF310805E
:1023200072B6704780F310887047C04610B5FFF74B
:10233000F5FF040001F0BAF9002803D08022034B16
:1023400052051A602000FFF7EDFF10BD04ED00E01C
:10235000002310B5084A094C05202360136001F0E2
:1023600079FFFA21890003F0B7FF054B01381860A7
:102370000723236010BDC04618E000E010E000E035
:1023800014E000E0FF221F4B1204196810B50A4345
:102390001A60FF22196812060A431A601A490E20B1
:1023A00003F090FD19490F2003F08CFD18490B2014
:1023B00003F088FDFFF7CCFF0022164B1A60D023F4
:1023C0001B06154A1C681470FF221A651A6DD20785
:1023D00004D501219A6D1A6D1142FBD10F34FF21F2
:1023E000200002F09FFE20000C4902F08DFC01212C
:1023F000200002F051FCFFF7CBFE01F069F902F07A
:102400005FF9C04620ED00E0D12100102D2300101F
:10241000B5220010C8380220E81C00203D22001020
:10242000D02310B51B061868074B1B78834200D0D9
:1024300010BDEFF30583002B02D05B00C018F7E757
:1024400001F0ACFBF4E7C046E81C002010B5030027
:102450000268154882B00478D020000600688442E3
:1024600008D0BFF35F8F0023136081F3108820BF73
:1024700002B010BDBFF35F8F0020106081F31088A1
:102480000A4A1B6810680A4A944663449A105C2BF7
:1024900000D9183A012301215B42914000930122A7
:1024A000002300F04DF9E3E7E81C00203439022056
:1024B00000FFFF2F0A002B4930B58C46036883B01C
:1024C00063449C105C2B00D9183C0121264BA14091
:1024D0001C78D0231B061B689C421FD040BF234D95
:1024E00003682C68A34234D02368002BFCD0BFF3D0
:1024F0005F8F1F4C23680B4323602B68BFF35F8FF4
:10250000002119600368D020002100064165BFF357
:102510005F8F196082F3108803B030BD40BF03683D
:10252000BFF35F8F00241C6082F31088EFF30583F4
:10253000104ADBB21068002B10D001AA019400F001
:10254000A9F9019B002BE7D080220B4B52051A60A2
:10255000E2E7074C206808432060D4E700F04CF91C
:10256000DAE7C04600FFFF2FE81C0020DC34002023
:10257000CC3802203439022004ED00E0F0B5CE461C
:10258000474680B51D00344B14001A78D0231B0633
:102590001B688046894683B09A420FD00368BFF318
:1025A0005F8F00221A6081F310882000290003F059
:1025B00095FA03B0C0BCB946B046F0BD03F026FBA7
:1025C00026002F00361A8F410121244849428019E4
:1025D000794143461E6800291EDC19D0BFF35F8F86
:1025E0000023336089F310881D4B5A6A954205D841
:1025F0009B6A0120A342DCD29542DAD18022194B9A
:1026000052051A60BFF34F8FBFF36F8F0020D0E7E2
:10261000FA239B009842E1D3FA220023920003F0B0
:1026200081FE031EDAD0BFF35F8F0022326089F390
:1026300010880D4A0D49106842468C461268624463
:1026400096105C2A00D9183E01210093B140002366
:10265000012200F075F8C7E7E81C002018FCFFFF16
:102660000040054004ED00E03439022000FFFF2F58
:1026700010B502F0A7F8054A054B94466044800067
:10268000186000F051F8034B186010BD4000003492
:10269000DC34002034390220F8B5DE4657464E4679
:1026A0004546E0B505000F00060000F0E5FE29688C
:1026B0002C6939430C362960A6422CD00023984659
:1026C0008023DB049B4680235B049A4680239B0483
:1026D00099460FE06746002F0AD057463A4202D08B
:1026E00042461A4390464B46194301F0C1F9296806
:1026F000A6420ED020000F000268646813021B0A75
:102700001F40BC465F463A42E4D06345E5D0A6424E
:10271000F0D143469943296000F0B6FEF0BCBB46B9
:10272000B246A946A046F8BD10B51C2003F0EEFB4A
:10273000041E03D0002308C000F0B8F8200010BD2C
:10274000F0B5C6460D00060000B51F00904600F02B
:1027500093FE2B0034682340002F0DD1002B28D08E
:102760004346002B28D02300AB43336000F08CFE9F
:10277000200080BCB846F0BD9D42F1D0069B002BE6
:102780001AD0434680215A1E9341C9041B0619439F
:10279000069A2943301D01F029F800F075FE002843
:1027A00024D001F033FA040083010DD52402240A59
:1027B000DEE7069B002B02D100F066FED8E741461B
:1027C0004B1E99410906E3E7FFF792FD34682300A9
:1027D0002B40002F0DD1002B05D04346002B02D0FB
:1027E0002300AB433360FFF78FFDDFE7FFF774FD96
:1027F000D7E7AB42F7D1F0E7F0B5DE4657464E4695
:1028000045460400E0B583B00D000600019000F0DD
:1028100033FE2200136824690C361D43370015600F
:10282000A6422BD0002399468023DB0498468023C0
:102830005B049B4680239B049A460FE000290BD043
:1028400059460A4202D04A461A4391465146294304
:1028500001F00EF9019B1D68A7420DD02000290050
:1028600046460268646813021B0A19403242E5D0EA
:102870008B42E5D0A742F1D14B469D43019B1D60A1
:1028800000F002FE280003B0F0BCBB46B246A946E9
:10289000A046F0BD10B5044C13000A000100200052
:1028A00001F0D4FB10BDC046992600100300083388
:1028B00001224360C36003610023524282600360CF
:1028C0007047C046002303617047C046030030B51F
:1028D0000D6808336A1C0DD01C005B681A68AA4298
:1028E000FAD94B60996003688C60013361600861BC
:1028F000036030BD04696368F3E7C046036941685B
:1029000082688A6051605968814205D00022026164
:1029100018680138186070475A60F7E7F0B5DE466E
:102920004E4657464546E0B585B00600FFF7E0FC49
:102930004523F45C64B2002C21DD213B9946213310
:102940009A46B14409E0AA6BEB6B03969A4245D3D1
:10295000013CE3B264B2002B11D0B56C002DF2D172
:10296000736A002B0BD0484601F01CF80028EFD00A
:1029700001F00EF9013CE3B264B2002BEDD1452326
:10298000FF22F254FFF7C0FCFFF7B2FC44233500EE
:10299000F45C103564B2002C05DC13E0013CE2B2BB
:1029A00064B2002A0ED03369002B0BD0280000F04F
:1029B000F9FF0028F2D0013C01F0EAF8E2B264B27B
:1029C000002AF0D14423FF22F254FFF79DFC05B00A
:1029D000F0BCBB46B246A946A046F0BD5346EF5CEC
:1029E000AB6B2A6C013398467FB2002A13D12B6857
:1029F0009B46002B2AD04346AB637B1C1CD16B6AE1
:102A0000002BA5D02800243000F0CCFF00289FD058
:102A100001F0BEF8AEE7686803A904F0F3F86B684C
:102A20002A6C9B18AA686B609342E4D32B686B6096
:102A30004346AB637B1CE2D000F032FEB84200D8C4
:102A400086E7534601377FB2EF5481E7A86801F06B
:102A5000ABF85B46AB6043460190AB637B1C09D18E
:102A60006B6A002B0FD1019B002B00D170E701F0A6
:102A70008FF87FE700F014FEB842F4D953460137CF
:102A80007FB2EF54EFE72800243000F08BFF0028DE
:102A900000D06DE7E7E7C046F0B5C64600B5846CE8
:102AA00082B0A26BE36B002501909A4204D3280008
:102AB00002B080BCB846F0BD4523226CE65CA76B33
:102AC00076B2002A1CD0606801A904F09BF8636804
:102AD000226C9B18A2686360934201D323686360F1
:102AE00000250137A763731C15D1636A002BDED064
:102AF0002000243000F056FF0028D8D00125D6E76A
:102B000023689846002BEBD1A06801F04DF84346AE
:102B10000500A360E5E700F0C3FD8642C7D2452368
:102B2000013676B2E654C2E7F8B505000E0017008C
:102B3000002841D0030C0A0C002B42D1002A30D1CE
:102B4000300068430300553336D8543003F0DEF9C3
:102B5000041E31D00300002E31D12360E5632664CA
:102B6000FFF7C6FB216CE36B22684B43D0185B1A5E
:102B70006260D218E260FF2300254422A06020009A
:102B8000A563A3540132A3541030FFF78FFE200039
:102B90002430FFF78BFEFFF7B7FB5023E754A56403
:102BA0000BE0131CA9B2B2B24A4380B29BB24343BA
:102BB000120C9B181B0CC3D000242000F8BD54330A
:102BC000CBE7002AF8D1081CECE7C046F8B5574619
:102BD000DE464E4645460400E0B592461D000F0015
:102BE000FFF79CFBA26BE36B06009A423BD30023EA
:102BF0009846022D09D03000FFF794FB4046F0BC08
:102C0000BB46B246A946A046F8BD4533E35C226CFC
:102C10005BB29846A36B9B46A36B9946002A2DD0C6
:102C20003900E06803F0EEFF226CE36851429B1A22
:102C30002268E360934202D2A3685B18E3604B46CC
:102C4000022D51D00133A363434601333DD000F040
:102C500027FD804504D24346452201335BB2A3548D
:102C600001239846C7E74523E35C226C5BB2984694
:102C7000A36B9B46A36B9946002A11D12768002FAE
:102C800046D04B460133A36343460133DFD1A36CE7
:102C9000002B33D0022D1BD15B46002B18D0DFE771
:102CA000002DBDD13900606803F0ACFF4946636870
:102CB000226C01319B18A2686360934201D32368A0
:102CC00063604346A1630133C1D1A36C002B15D0CF
:102CD0002000FFF7E1FE0028C2D05346002BBFD0F2
:102CE000012352461360BBE7002B00D10123A363ED
:102CF00043460133ABD1A36C002BCDD1636A002BCB
:102D0000AED02000243000F04DFE0028E5D1A7E72A
:102D1000A06800F049FFA760B3E7C046F0B547469A
:102D2000CE46040080B585B088460192FFF7E0FAF0
:102D3000A76B002F5ED1019B002B3BD002A800F0B7
:102D4000E1FE0023442699464525FFF7DDFA00F011
:102D500093FBFFF7CDFAA35D5BB2013301D14B4684
:102D6000A355635D5BB2013301D14B466355FFF759
:102D7000CBFA01A902A800F0D1FE002822D1FFF76A
:102D8000B7FAA36B002B2AD1FFF7BEFA20000199F6
:102D9000243000F0DBFC2000FFF7C0FD00F074FBE6
:102DA000002824D0FFF7A4FAA76B002F22D1019BA3
:102DB000002BCAD1FFF7A8FA002005B0C0BCB94665
:102DC000B046F0BD2000FFF7A9FD00F05DFBFFF766
:102DD0008FFAA36B002BEDD0FFF796FAE2E7FFF72F
:102DE00093FA2000FFF79AFD00F04EFBDAE7FFF7B9
:102DF00073FAD7E7226C002A08D0E168A368891823
:102E0000E16099420BD2404603F0FCFE7B1EA363B7
:102E10002369002B06D1FFF777FA0120CDE721685F
:102E2000E160F0E72000103000F0BCFD0028F2D097
:102E3000FFF752FAEFE7C04610B5002933D0424BF6
:102E40005A68904200D173E01A68002A2CD0DA68E0
:102E5000904200D176E09A68002A3ED05A699042AA
:102E600000D16DE01A69002A3DD0DA69904261D044
:102E70009A69002A3DD05A6A904242D01A6A002AC2
:102E800043D0DA6A904257D09A6A002A43D05A6BEC
:102E9000904253D01A6B002A43D0DA6B904245D04F
:102EA0009A6B002A2AD010BDDA6890424AD05A693B
:102EB000904245D01A00DC69A0423BD05C6AA04237
:102EC0001FD0DC6AA04237D05C6BA04236D0DC6BEE
:102ED000A0422BD011605060E5E75A6990422FD094
:102EE0001A000832E7E7DA69904223D01A0010325C
:102EF000E4E75A6A904204D0144AE2E738331A00F1
:102F0000E8E70422D2009A18E4E7DA6A904213D084
:102F10001A002032D8E75A6B90420FD01A0028329C
:102F2000D5E71A00DC6B3032A042D3D10722E9E7A3
:102F30000022E7E70322E5E70522E3E70622E1E7CF
:102F40000222DFE70122DDE7C0250020D82500208E
:102F500070B5040016000D00FFF7CAF94422A35C07
:102F60005BB2013301D10023A3544522A35C5BB2C1
:102F7000013301D10023A354FFF7C6F9A36B002B43
:102F800003D02000FFF7CAFC70BD200032002900EA
:102F9000243000F08DFCF4E7F0B5C64600B504001F
:102FA000FFF7A6F9384A394F1368013313603B68BD
:102FB000002B35D0364BE26A98461B68002B29D08F
:102FC000344E35490B6801330B606364334B196829
:102FD000914200D21A6093009B189B00F1184A6836
:102FE0009068A26084466546E060201D686090603D
:102FF000F25861610132F250FFF786F943461B68CF
:10300000002B04D03B68DA6AE36A9A4211D380BC91
:10301000B846F0BD3B68DB6A9342D1D83C60CFE74D
:103020003C601368012B07D0194BE26A9846194E91
:10303000C7E7FFF751F9EAE7A023164E9B00984631
:103040003500B04428001435FFF730FC4545F9D170
:10305000134B98461800FFF729FC124D2800FFF784
:1030600025FC1148FFF722FC1048FFF71FFC104811
:10307000FFF71CFC42460F4B1A600F4BE26A1D60C3
:10308000034B98469DE7C046D0380220E03400202C
:1030900070390220F8340020DC380220E0380220A9
:1030A0000C390220203902205C390220903902209C
:1030B0007C390220E8340020F0340020F8B5CE46F8
:1030C0004746960080B5804630000D00994602F0D4
:1030D0001DFF071E00D187E0702002F017FF041EBD
:1030E00000D17EE07022002103F086FD3200A52190
:1030F0003800276303F080FD236B043E9E190723ED
:103100009E43002D4BD034222B78A354002B43D068
:103110006B780132A354002B3ED0AB780132A3541C
:10312000002B39D0EB780132A354002B34D02B790B
:103130000132A354002B2FD06B790132A354002B02
:103140002AD0AB790132A354002B25D0EB79013280
:10315000A354002B20D02B7A0132A354002B1BD078
:103160006B7A0132A354002B16D0AB7A0132A354F0
:10317000002B11D0EB7A0132A354002B0CD02B7B07
:103180000132A354002B07D06B7B0132A354002BD8
:1031900002D04223AA7BE25443230022E254089D3A
:1031A0001F2D1CD8201DE562E564FFF78BFB200076
:1031B0001830FFF787FB20235B1BA3614A4641467B
:1031C000300024616462FFF777F8099B2060002BD0
:1031D00000D01C602000C0BCB946B046F8BD1F2519
:1031E000E0E7380002F024FF0024F3E7F0B5C6461C
:1031F000124B00B59846124D124F134E14E0FFF7D4
:1032000077F8FB68DC68201DFFF778FB3368013B2B
:1032100033602B68013B2B60FFF776F8206B02F0E0
:1032200007FF200002F004FF2B68002BE7D1434684
:103230001B68012BF8D9FFF74FF8F5E7F8340020A9
:10324000D438022090390220D0380220F0B5DE4672
:1032500057464E464546594BE0B51A6883B0013291
:1032600094461A60002A5FD055490B689C4570D37C
:10327000544B99461B681B68002B00D198E0002333
:103280009846514B514E9B46514B01919A4639E01D
:10329000002159611168013911609A6A002A0ED023
:1032A000D969186A556888604160190018318D42E3
:1032B00000D173E000219962116801391160524612
:1032C000D96A1268914201D9524611608A00521897
:1032D0009200B518686887689860DF607C608460D9
:1032E0005D61B3580133B3505B461B684246DB6AED
:1032F0008B429B415B421A434B461B6890461B68BE
:10330000002B50D04B461B68DB68DB685A6894453D
:1033100046D35A699868D9681C1D81604860506816
:10332000A042B5D15160B3E7264B2A4A196810680C
:103330001860116028490A6801320A601A68126828
:10334000002A25D101231E495B420B600B689C4576
:103350008ED2002398461C4B1C4E9B465B46012098
:103360001B681E4AD96A12688B005B189B00F358D1
:103370009842804113005A1E9341404218434346ED
:10338000184303B0F0BCBB46B246A946A046F0BD08
:103390001B680B49DB681B680B6066E7506089E7B8
:1033A00001990A60DAE7019901235B420B60D5E7D6
:1033B0009846054B054E9B46F6E7C046A4390220C9
:1033C00048390220E8340020E0340020F83400209E
:1033D000E0380220F03400204C390220B0390220BD
:1033E00010B582B0059C0194049C0094FFF766FE22
:1033F000002804D0FFF7D0FD012002B010BD01204D
:103400004042FAE710B586B01022002102A803F06E
:10341000F3FB00248022114B11480293114B0094BE
:1034200001935200002302A9FFF748FE002805D0AF
:10343000FFF7B2FD00F0C4FD012803D00A4B1B6862
:1034400006B010BD72B60122084B52421A60084BFA
:103450001860084B1C60FEF795FFEFE749444C45A8
:10346000ED3100103C390220187801104839022053
:1034700070390220A4390220024A13680133136014
:103480007047C046D8380220F0B5DE4657464E4653
:103490004546E0B583B0FEF72BFF534C2368013B54
:1034A00023602368002B00D081E0504B1B68002B69
:1034B0007DD04F4B9C461B68002B00D190E04D4BBC
:1034C0004D4D98464D4B019499464D4B9A460023DD
:1034D0009B466346DB68DB68D869196A9A6A816033
:1034E0004860180056681830864200D172E059468C
:1034F00099621168013911605A699868D9685668EB
:1035000081604860181D864262D0116801391160DF
:103510004146DA6A09688A4201D941460A60910047
:1035200089188C002E1971688F689960DF60786047
:1035300088605E612B5901332B514B461B68DB6A57
:103540009A423FD9534601221A6063461B68002BFA
:10355000BFD12C4B019C1A681268002A3CD01B6812
:10356000DB681A68284B1A60284E3568002D14D085
:10357000012708E0FFF76AFE002801D053461F60CC
:10358000013D002D08D02368002BF3D03368013DA6
:1035900001333360002DF6D1356053461B68002B94
:1035A00005D0164B01241B68FEF796FE00E00024B0
:1035B000FEF7AAFE200003B0F0BCBB46B246A94607
:1035C000A046F0BD63461B68002B00D081E7C0E732
:1035D00051609AE751608AE70B4B013A1A60C3E7E2
:1035E000074B9A46C0E7C046D8380220D0380220A0
:1035F0005C390220E0380220F8340020E03400205A
:10360000B0390220E834002048390220583902201D
:10361000F0B5C646040000B5002821D0174A13684B
:1036200001331360164B00211E68164B164D1F68A0
:10363000164BA4191B682A6898466D232868D15434
:103640000430FFF75BF92B6829685C600431A642FF
:103650000BD94046FFF73AF9FFF716FF002801D1D2
:10366000FEF73AFE80BCB846F0BD3800FFF72EF9F1
:10367000074B1A689442EFD21C60EDE7D83802205D
:10368000A4390220E8340020E0340020F034002087
:1036900048390220014B18687047C046A4390220FF
:1036A000014B18687047C046D0380220064B10B551
:1036B0001B68002B02D1FFF7C9FD10BD034A002093
:1036C000136801331360F8E7D83802205839022014
:1036D000194B30B51B68002B03D00122174B1A6021
:1036E00030BD164A164C13602268164891008B189C
:1036F0009B00C558002D07D1143BC3181968143B13
:10370000013A0029FAD091008918890045186B68A0
:1037100008315B6840186B60834205D0D9680A4B5A
:10372000196022601B68DBE7EB68D9686B60064BA9
:10373000196022601B68D3E7D8380220B039022014
:10374000E0380220F8340020E0340020F0B5C6460E
:10375000204D0C00296800B51831FFF7B7F81E4B53
:1037600000211E681D4B1F681D4B1B682A68984668
:103770006D232868D1540430FFF7C0F8631C15D0BE
:103780002B682968A4195C600431A64205D940461B
:10379000FFF79CF880BCB846F0BD3800FFF796F8FC
:1037A000104B1A689442F5D21C60F3E70E4B29685F
:1037B0005A688A6090682968C86029680431416045
:1037C0002968043191602A6853611A6801321A60CD
:1037D000E0E7C046E0340020A4390220E8340020AD
:1037E000F0340020483902207C3902208023F0B5D3
:1037F000C646294C15001B0622680B4300B5936191
:10380000226843689968D36122681162226818327D
:103810004A602268002118329A602368986203681F
:10382000013303601D4B1E681D4B1F681D4B1B6839
:10383000226898466D232068D1540430FFF75EF863
:103840006B1C15D023682168AD195D600431AE4250
:1038500005D94046FFF73AF880BCB846F0BD3800BD
:10386000FFF734F8104B1A689542F5D21D60F3E764
:103870000E4B21685A688A6090682168C860216888
:1038800004314160216804319160226853611A68F3
:1038900001321A60E0E7C046E0340020A43902207B
:1038A000E8340020F0340020483902207C3902201E
:1038B000F0B5C646354C43680D00216800B59E68DA
:1038C000CB6121680E62216818317160216818315E
:1038D0009960236898620368013303602C4B002AC7
:1038E00021D01B682B4B00211B682B4B1B686D23C1
:1038F00022682068D1540430FFF700F8274B216874
:103900005A688A6090682168C86021680431416003
:10391000216804319160226853611A6801321A608B
:1039200080BCB846F0BD1E681A4B1F681A4B1B6856
:10393000216898466D232068CA540430FEF7DEFFE4
:103940006B1C15D02368AD195D60AE420AD82168A2
:1039500038000431FEF7BAFF114B1A689542DFD2E6
:103960001D60DDE7216840460431FEF7AFFFD7E771
:103970002268731E53609E42F4D8216838000431D7
:10398000FEF7A4FF064B1B68CAE7C046E0340020E0
:10399000A4390220E8340020F03400207C390220D1
:1039A00048390220C368F0B5DB68D869196A9A6A99
:1039B00081604860180054681830844241D000216A
:1039C0009962116801391160234AD96A1268002A84
:1039D00029D15A699C68D8681D1DA060446054684C
:1039E000AC4230D01068013810601C4A1068884220
:1039F00025D38A001A485218920086187468A7685E
:103A00009C60DF607D60A5605E61835801338350F8
:103A1000144B00201B68DB6A8B4203D20122124B3D
:103A200001301A60F0BD114A5468A568DC611D625E
:103A30006860A0609A62136801331360E8E7116060
:103A4000D7E75160BBE75060106801381060034A47
:103A500010688842CDD2F2E7D8380220E038022040
:103A6000F8340020E0340020B03902205C39022014
:103A700080231B06F0B5026944680B43816803602C
:103A8000C368A1604C60546884422ED0002101615B
:103A900011689868013911605A69D9681D1D8160E3
:103AA00048605068A84222D0116801391160114A5B
:103AB000D96A1068814200D911608A000E485218F4
:103AC000920086187468A7689C60DF607D60A560BE
:103AD0005E61835801338350084B1B68DB6A99424F
:103AE00002D90122064B1A60F0BD5160CEE7516049
:103AF000DAE7C046E0380220F8340020E034002045
:103B0000B0390220034B1B680360034B1B68436002
:103B10007047C0464C390220A4390220F0B5C64691
:103B200000B50E000700FEF7E3FB6D23154C164AA7
:103B300021681568ED5C002D09D000211268D15470
:103B40000124FEF7E1FB200080BCB846F0BD3368DD
:103B50005A1C15D00D487A680568A8463D68454549
:103B600004D08A4202D800233360E9E78D1AAB42C1
:103B7000F9D95B1A9B18336003683B6023687B604C
:103B80000024DEE7A4390220E03400204C39022072
:103B90000122014B1A607047B0390220014B1868AE
:103BA0007047C046E034002070B5041E08D0036D95
:103BB000C16AC26C013B0365914201D0002B01D068
:103BC000002070BD051D2800FEF798FE2023E26C42
:103BD0009B1AA3610B4BE26219688A4200D91A60F2
:103BE000930009499B189B00C81842689668A26018
:103BF000E66075609560CA58606101320120CA5064
:103C0000DFE7C046E0380220F8340020044B1A6891
:103C1000196890691A682023C96A5B1A9361704712
:103C2000E0340020F0B55746DE464E464546E0B546
:103C3000CE4B8BB09846CE4B06AF0193CD4B9B46F7
:103C4000CD4B9946CD4B4C4602932823D9469A46F4
:103C5000C3465B461B681D68002D00D0E1E0FFF7FE
:103C60000BFCFFF717FD019A80461368834200D9C9
:103C7000E7E04B461B6810601A6853425A414346BE
:103C80002068E91AFFF764F9FFF7FEFB002800D16E
:103C90002BE110220021380002F0AEFF0022390093
:103CA0002068FFF73BF80028D3D03B68002B5ADB95
:103CB000BD68002DF2D06B69002B02D0281DFEF7E5
:103CC0001DFEFFF7E7FC019B06001B68984252D3DC
:103CD000019B1E603B68092BE0D8029A9B00D358D9
:103CE0009F465346E85C012352460343AB54796830
:103CF000AA692D618B186B60B34200D986E0711AF6
:103D00008A4219D8410700D5F2E00123984353466F
:103D1000E85428002B6A9847C0E753460122EB5C21
:103D200013435246AB547B682D619A19AB616A60AC
:103D3000B24270D8002BB1D04B46291D1868FEF74F
:103D4000C5FDABE753460122EB5C93435246AB54AF
:103D5000A4E75346EB5C9A0700D4C2E001229343E8
:103D60005246AB549AE77B68F968B86898473B6855
:103D7000002B93DB9CE75B461B681A68002A3ED049
:103D80000395049005940BE0012293435246A354FB
:103D9000236A200098475B461B681A68002A2BD0CC
:103DA000DB68DC681E68231D18009846FEF7A6FD38
:103DB00053460422E35C1A42E6D0A3692461F51855
:103DC000F64365609E420AD32E00F643236A200024
:103DD0009847A3692461ED186560B342F4D94B4656
:103DE00041461868FEF772FD236A200098475B463B
:103DF0001B681A68002AD3D1039D049E059C4A467D
:103E0000594612680A604A46136061E7B14202D916
:103E1000994200D876E75B46291D1868FEF756FDE3
:103E20003CE7DB681D68FFF727FBFFF733FC019ACF
:103E300080461368984204D3106085427AD90022E4
:103E40001DE75B461B681A68002A3ED04246049470
:103E500003920BE0012293435246A354236A2000AD
:103E600098475B461B681A68002A2BD0DB68DC6821
:103E70001E68231D18009846FEF740FD5346042295
:103E8000E35C1A42E6D0A3692461F518F643656045
:103E90009E420AD32E00F643236A20009847A36966
:103EA0002461ED186560B342F4D94B464146186869
:103EB000FEF70CFD236A200098475B461B681A68D2
:103EC000002AD3D1039A049C90464A465946126868
:103ED0000A604A4613604246019B1A60FFF7D4FA13
:103EE000D7E6280002F0A4F8D8E6FEF7F5F9D0E608
:103EF000A046340007E0E31A9A4214D82B6A28003F
:103F000098473300AA69D6186E602D61B442F2D288
:103F10009C4201D2B342F1D95B46291D1868444640
:103F2000FEF7D4FCF5E64B46291D18684446FEF71B
:103F3000CDFCEEE6FFF7A8FA5B461B68DB68DE689F
:103F4000331D18000393FEF7D9FC5346F35C5A0760
:103F500007D4012293435246B3543000336A984742
:103F600097E622002B004446904610E0E4340020FF
:103F700040390220F4340020A83902201C780110B6
:103F8000E31A9A4214D8336A300098472B00B2697A
:103F900036619D187560A542F2D9A34201D9AB42A2
:103FA000F1D95B46039918684446FEF78FFCD4E7C5
:103FB0004B46039918684446FEF788FCCDE7C04697
:103FC00070B582B0FEF794F9174C2368002B12D01D
:103FD000FEF79AF923680020002B0AD0134B8022A9
:103FE00001931F231249009312480023D200FFF7C8
:103FF000F7F902B070BD104E3000FEF757FC0F4DC0
:104000002800FEF753FC0E4B00221E600D4B1021C2
:104010000A201D60FEF788FD20600028D8D00A49DC
:10402000FEF70AFFD4E7C046A8390220AC390220C7
:10403000D8710110253C0010E4380220F838022025
:10404000E4340020F4340020D071011030B51400A5
:104050001A0002230D0085B05B420093054B0190CE
:1040600069461868002302950394FEF7AFFD05B07A
:1040700030BDC046A8390220F8B5DE464E46574648
:104080004546E0B58B4605000A991800160002F077
:1040900023F90A9B6C001F02324B64199C46A40052
:1040A0006444636881469F4200D967602B1FDBB27E
:1040B0009846012B30D9C02380229B01E3181201BE
:1040C0001A60294BAD0059599A4600291BD173013A
:1040D000E026226853401E40802342465B01E318DD
:1040E0001E60012A30D9802380229B01E31812012F
:1040F0001A6053464A4667605A51F0BCBB46B24606
:10410000A946A046F8BD586902F0E6F80130430020
:104110001B18033BFDD2DAE75B46012BCBD1C02352
:1041200003229B01E3181A60023AA3681A42FCD0EA
:104130007301E0262268AD0053401E4080230A4AE6
:104140005B019246E3181E605A46216851400322E3
:104150000A401A6001225B469A40A3681A42FCD0CA
:10416000C1E7C0460080004034300020F0B546462C
:104170004F46D646C0B51F00344B44009C46241819
:10418000A4006444636888461600FF2B02D880238D
:104190005B006360031FDBB29A46012B30D9C0235A
:1041A00080229B01E31812011A60294B850059599E
:1041B000994600291BD17301E026226853401E4016
:1041C000802352465B01E3181E60012A30D9802308
:1041D00080229B01E31812011A6080235B00636058
:1041E0004B465F51E0BCBA46B146A846F0BD58699F
:1041F00002F072F8013043001B18033BFDD2DAE7EE
:104200004346012BCBD1C02303229B01E3181A6044
:10421000023AA3681A42FCD07301E02622688500A6
:1042200053401E4080230A4A5B019146E3181E60FA
:1042300042462168514003220A401A600123424647
:104240009340A2681342FCD0C1E7C0460080004002
:1042500034300020014B8000C058704734300020BB
:10426000F0B54746CE4680B55B4B16005A6807004E
:10427000884683B0FF2A02D8802252005A60032267
:10428000564B554D1A600123AC682342FCD02022C6
:1042900029685140C0320A4051490A602A684E4D8F
:1042A0005A40032313400B600223AC682342FCD026
:1042B00080224C4B12011A6080235B006B604A4CD9
:1042C00099464A4B3A0063610121434648480096AB
:1042D00001F0EAFC41463800714301F0FDFF454B17
:1042E00005005A68FF2A01D84A465A608022424B8C
:1042F00012011A602169002907D0606901F0ECFF02
:10430000013043001B18033BFDD2E023394A3B48F0
:1043100011680B40036002231168594001330B40C0
:104320000421036093681942FCD08021344B0901B9
:1043300019608021334B490051602361264B5A6834
:10434000FF2A00D8596003220121244B1A60224A17
:1043500093681942FCD0E0231068034020480360B2
:10436000126803234A40022113401B4A03609368EA
:104370001942FCD080211B4B090119608021224B7E
:104380004900516065615A68FF2A00D8596080224F
:104390001E4B12011A60A169002907D0606901F063
:1043A0009BFF013043001B18033BFDD240231649FD
:1043B0000A685A40A0331340154A13608022154BF7
:1043C00012011A6080235B004B60084BA36103B0AD
:1043D000C0BCB946B046F0BD3C8000403CB0004097
:1043E0003C9000403CA0004034300020006CDC02D7
:1043F000008002403080004030B0004030900040EB
:1044000030A00040001BB7004880004048B000408A
:104410004890004048A00040F0B54E46DE46574662
:104420004546E0B51600924A85B09346A022520058
:1044300091465A4603969B46060001920291019BC3
:104440008C4A93420DD901235B429C468A4AE1443F
:104450009446019B634401934B460F2BEFD1002000
:104460008EE01F00854B07249C466744230063436E
:1044700038001900984601F02FFFA246651E8642BB
:1044800050D06C433800210001F026FF864259D0FD
:104490006B1E9846012D00D1D3E05346E41A21004B
:1044A000380001F019FF864258D0AB1E9846022D05
:1044B00000D1B9E05346E41A2100380001F00CFFA6
:1044C000864264D0EB1E9846032D66D05346E41A0C
:1044D0002100380001F000FF864200D172E02B1F5E
:1044E0009846042D00D174E05346E41A21003800A8
:1044F00001F0F2FE864200D17DE0052D00D17FE083
:1045000053463800E11A01F0E7FE06248642ADD199
:104510000029ABD1C8465B46D14601250298039ECF
:1045200026E0A8464146380001F0D6FE002900D119
:1045300097E0651EA2466C433800210001F0CCFED6
:104540008642A5D12100380001F0C6FE00299FD186
:10455000C8465B46D1460298039E09E00029A4D1D3
:104560005246C2465B46C846554691460298039E4F
:104570004246434951434A460160012032601D6072
:1045800005B0F0BCBB46B246A946A046F0BD002926
:10459000E6D0EB1E9846032D98D10921380003245C
:1045A000092501F099FE8642BBD00323062138007D
:1045B0009A460334073D01F08FFE8642C2D00123A4
:1045C00098466AE70029CBD02B1F9846042D00D0CF
:1045D0008AE704240C353B099E42A2D004230C2117
:1045E00038009A4608340D3D01F076FE8642A9D087
:1045F0000223984651E70029B2D0052D00D07FE76D
:1046000019213800192501F067FE864226D01421B1
:10461000380001F061FE052314249A4686421BD01F
:10462000023B9846153D38E7042302249846BB0810
:104630009E4200D176E7A246013D7B089E4200D112
:1046400080E7B74200D0FEE60122C8465B469146AD
:1046500001250298039E8BE7042573E7A8460524ED
:1046600060E7C8465B46A14625000298039E7FE7A7
:1046700050262F0050F80C0020D1FFFFB0710B0026
:10468000001BB7008023DB051868000F7047C04689
:104690000FB400B5084883B004F06EF9049B002BFA
:1046A00007D005A91800019103F042FF034804F068
:1046B00063F9012003F054FFE0710110906B0110C9
:1046C00010B50148FFF7E4FFF0710110EFF310801F
:1046D00072B6034A1368002BFCD0BFF35F8F70479C
:1046E0002C0100D0BFF35F8F0022024B1A6080F3D1
:1046F000108870472C0100D070B5EFF3108C72B6A3
:104700000D4D2B68002BFCD0BFF35F8F0724CB0827
:10471000C618C05C01230C40A3401C0004400342A7
:1047200007D118433070BFF35F8F2C608CF3108873
:1047300070BD1000FFF7ACFF2C0100D0F8B5474664
:10474000CE46884680B5EFF3108C72B61C4D2C68AF
:10475000002CFCD0BFF35F8F9A4222D8072101269C
:10476000894602E00132934218D34D463700154086
:10477000AF40D4080119045D2742F3D110003C4337
:104780000C70BFF35F8F00220D4B1A608CF3108802
:1047900000280EDBC0BCB946B046F8BD012040423F
:1047A000EFE7BFF35F8F00232B608CF310880120AD
:1047B00040424346002BEDD00898FFF769FFC04602
:1047C0002C0100D0044A1078431CDBB2172B00D90F
:1047D000102313707047C046E91C002010B5064B2B
:1047E000064C82B00100009318221F232000FFF71F
:1047F000A5FF02B010BDC04600720110282F002096
:104800000021044B044ABFF35F8F02C39342FAD1E5
:104810007047C046000100D0800100D0D0231B06A5
:104820001B68AC4A9900F0B5DE468B4651585A4297
:1048300053412F2257464E4645465B4293439A4684
:10484000A54BE0B59C4683B000260191E2440029C7
:1048500038D0A24B99465246F30808339B009D5826
:104860000123340098460836002D22D00F21200065
:10487000294001342D09002919D04B465A469A582F
:104880000300C240203BDB171340424613420CD1C9
:1048900007220F000240920097403A00C308904F51
:1048A0003C339B00DA51019B9847002D01D0B44264
:1048B000DCD3202ECFD103B0F0BCBB46B246A94614
:1048C000A046F0BD854E5F4600210F23B346CC08BD
:1048D00022005046083292001258002A00D1D0E03F
:1048E000180010408046100913421AD05D46ED5959
:1048F000A94620256D42AC468C446546ED17AC4672
:104900004D46CD40A94665464E46354001263542C6
:1049100004D14646724D3C34A4006651002800D1B3
:10492000AFE01C000440A446140A03421AD0481CFD
:1049300080465846C059464681464D460800F540D7
:104940001F38C01728400125284208D165462D018F
:10495000AC46F0086646624D3C3080004651002C63
:1049600000D18EE0180020408446100B234211D065
:104970008C1CA0465C46E4594646A1464D460C00B8
:10498000F5401E3CE4172C4001252C4200D182E06A
:10499000002876D01C000440A446140C034210D01A
:1049A000C81C80465846C059464681464D460800B8
:1049B000F5401D38C01728400125284275D0002C2D
:1049C0005FD0180020408046100D23420ED00C1DF1
:1049D000A4466546414CE459EC40A1460C004D46C6
:1049E0001C3CE40F2C426AD000284AD01C00044032
:1049F000A446140E034218D0481D80464546374849
:104A0000C059E840814608004D461B38C00F284277
:104A100009D165462D05AC4640466646C008304D76
:104A20003C3080004651002C2BD01800204084469A
:104A3000120F23422AD029488C1D8146C059E040DC
:104A40008046080045461A38C00F284206D1E008C3
:104A50006446234D3C30240680004451002A10D087
:104A60004846C059CC1DE0408446080065461938C8
:104A7000C00F284205D1E0083C30194C12078000D5
:104A800002510831202900D021E714E7002AF8D08C
:104A900012488146E4E765462D02AC46F4086646B6
:104AA0000F4D3C34A400665172E765462D03AC46B9
:104AB000F00866460A4D3C30800046517FE7454687
:104AC0002D04A84664464646E408054D3C34A4003F
:104AD000665189E7182F00203041014078370020C7
:104AE00000400140094A83009A1810B5146840221A
:104AF000544080322240064CC000A44663441A60F1
:104B0000044B9C466044416010BDC04604C0014057
:104B100004D0014000400140074B8000C3181B68CF
:104B2000C90092000A435A400C231340034A94469A
:104B3000604403607047C04604C0014004D0014097
:104B4000064B8000C3181B68054A0901594094466A
:104B5000302360440B4003607047C04604C00140EE
:104B600004D00140F8B545469846D0231B06DE46E2
:104B70001C689B462B4B57469A46A3004E469946C7
:104B8000E0B5534616004A469B5807000D00002B1F
:104B900034D04346002B3FD053464A4641469950B5
:104BA000D0231B061C6863425C412F22072063420E
:104BB00093431D4A38409446FA081100800085400E
:104BC0003C311A486344890092000D509B18002E16
:104BD0000ED0802292019446634401210D201D6075
:104BE00000F05AF8F0BCBB46B246A946A046F8BD54
:104BF000C0229201944663441D60F3E74346002BB4
:104C0000D1D0534641460D2099500022084900F06A
:104C1000A5F85B461C68C6E70D20054900F098F929
:104C2000BAE7C046182F0020304101400040014043
:104C30001D4800100123D022834012069362936125
:104C4000094A83009A1811684022514080320A4074
:104C50000649C0008C4663441A60054B9C460523F8
:104C6000604443607047C04604C0014004D0014026
:104C700000400140054B064A1360064A136053602A
:104C80009360D3601361536193617047808080802B
:104C900000E400E004E400E01F2318401E3B8340D2
:104CA000002905D0C021044A4900535013607047C1
:104CB000802201498B50FAE700E100E001228240A6
:104CC000034B1B6813405A1E9341D8B27047C0462D
:104CD00000E100E001238340014A13607047C046B1
:104CE00000E200E0064B10309B688000C358054A84
:104CF00000209B1A2F229A424041C0B27047C04602
:104D000000ED00E0EC1C002070B50D00EFF3108604
:104D100072B60F4A1368002BFCD0BFF35F8F0D4BA8
:104D200010309B6884001B590B4A934203D09D426C
:104D300001D001F0CBF9074B9B681D51BFF35F8F8A
:104D4000BFF35F8F0022024B1A6086F3108870BD9C
:104D5000240100D000ED00E0CD010010F0B5574671
:104D60004E46DE464546E0B585B006000091170088
:104D7000EFF3108B72B66A4A1368002BFCD0BFF3B6
:104D80005F8F0025674B5D579A46002D00DAA9E03A
:104D90006B00654C01935B199B009846A146C1448A
:104DA0004B4652469B7910361370604BB6009B6899
:104DB00099590B1B2F2B33D95D4B994200D0ACE096
:104DC000019B42469C465B4B6544AD0063535A4B86
:104DD0000232A218043B9B1A1B05584A5B0D651949
:104DE00013436B80564B0121AB80FF23AB71009BBB
:104DF000EF71AB604B460B4319004C4B9B689951CC
:104E0000BFF35F8FBFF35F8F0022454B1A608BF3B8
:104E1000108805B0F0BCBB46B246A946A046F0BD1E
:104E200001200A008243D3798C46BB4231D84546E3
:104E3000130044491B1B5B415943090D3D4B635310
:104E40003D4B02356519043B5B1B1B053B4D5B0D60
:104E50002B43AA464D466B800425AC465546E0449C
:104E6000131F44441B1B1B055B0D1D434B469971CF
:104E700000999D8099604946DF71334B014313606F
:104E8000BBE75800C01880002018C179B9422FD95B
:104E900002000623D356002BF3DA02932B4B614614
:104EA0000393131D9A4604235B429C46E1445046FB
:104EB0004B461B1A1B055B0D9C46204B9571984673
:104EC0006346404603439380019B5A199200039B1B
:104ED000A418A380029B1C4AA371009B2260E77167
:104EE000A3608AE701F0F2F8002553465D574FE7CB
:104EF000908802934005131D9A46031561469C460F
:104F00004046D444634604302018181AE0230005B4
:104F1000400D1B0218430390C5E701F0D7F84FE797
:104F2000240100D0C0390220EC1C002000ED00E07C
:104F3000CD01001000A1FFFF1C1D002000E0FFFFBD
:104F400001BDFFFFAAAA00000148804701BD000083
:104F5000F0B5DE4657464E464546E0B50C0083B0F8
:104F6000EFF3108872B6634A1368002BFCD0BFF3CE
:104F70005F8F614B61499A68030010339F00D559D8
:104F800001938D4243D0A54254D05D4EAA1B2F2AD7
:104F90003DD85C4B9B461B68994601231A009C46F2
:104FA00082404B4613401F2299466346024093407D
:104FB0009A4680225B4650469850BFF35F8FEFF3CE
:104FC00005839B46002B37D0019B5B4501D001F048
:104FD0007DF801232A009A439068844208D176E044
:104FE0004B005B189B00F3189868844236D01A0077
:104FF000062151560029F3DA844254D04B46002B47
:1050000027D0C02251463F4B5200995019603A4B6D
:105010009B68DD51BFF35F8FBFF35F8F0022354B7D
:105020001A6088F3108803B0F0BCBB46B246A946AC
:10503000A046F0BD0D00EAE72A0063469A43906857
:105040008442D5D106201056130000280ADA0D003C
:1050500031E0802351462B4AD150D8E7062018561C
:10506000002821DB42001118890074188B46A168C2
:105070009960E179D971062161569971002924DB83
:10508000A488F11A640524155C44091909051E4C0D
:10509000490D2143998013181C4A9B001178F3187D
:1050A00099711070AAE713005946002914D1FF31F5
:1050B00091711749918015490A789A71154A9B1B7D
:1050C0005B415A43120D0A7098E71149E2E7062046
:1050D000105613000028C5DA0F4A1049D21A083AB0
:1050E0005002400D014399800D4952080A43DA806D
:1050F00084E7C046240100D000ED00E0CD0100109F
:10510000EC1C002000E100E000E0FFFFC0390220BD
:1051100001BDFFFFAAAA0000261D002000F0FFFF2E
:1051200000F8FFFF10B58308040003202040FF248F
:10513000054AC0009446844081409B0063441A683D
:10514000A2430A431A6010BD00E400E070B50124D8
:105150000443EFF30581EFF3108C72B6214A136814
:10516000002BFCD0BFF35F8F1F4B05001F4AED1AC9
:105170006D416A43120D1E4D8900AE6852B27658D9
:10518000A6421CD00621595691421CD012215956D4
:10519000914222D01E215956914220D02A2159569F
:1051A0000324914210D0134B19781A708171BFF308
:1051B0005F8F00220B4B1A608CF3108870BDAB68B8
:1051C0000D4C5C50EFE700246100091989005B1861
:1051D000FF21997109499980E5E70124F4E7022448
:1051E000F2E7C046240100D0EC1C0020AAAA00006F
:1051F00000ED00E0C0390220CD01001001BDFFFF2D
:1052000010B5084B084C82B0010000930022052322
:105210002000FFF793FA002801DB1F23181A02B0C1
:1052200010BDC0461C720110C439022070B50400C4
:105230000E001500FFF7C6FA0100200000F006F886
:10524000A680E580BFF35F8F70BDC046024B9C46D1
:10525000614489000160704740000034F8B5124C89
:10526000124DAC4212D20126002776422368002B51
:105270000DD0FFF7A7FA01002000FFF7E7FF6660F7
:105280002772BFF35F8F0C34AC42EFD3F8BDFFF74A
:1052900099FA01002000FFF7D9FF6660BFF35F8F26
:1052A0000834AC42E2D3F1E7102300203023002081
:1052B00010B50400FFF786FA01002000FFF7C6FFD3
:1052C00001235B426360BFF35F8F10BD10B5040024
:1052D0000120FFF783FA034BC3189B002360BFF341
:1052E0005F8F10BD40000034034B9C466144890031
:1052F0000160BFF35F8F704740000034F0B5DE46B9
:1053000057464E464546E0B587B0EFF30583032286
:1053100001251A40954091008846A946B34B039257
:105320005C58B34B1D60B34B04934B46B248436388
:105330000823E55E002D37DAA3881BB2002B00DBC3
:10534000ADE0A379002B00D0EEE00823E05E00285A
:1053500020DB430062691B18DB00D3189E68DD6800
:10536000731C00D111E1A44801004144826A0B6919
:10537000B71A9B1A9F4215D30123026A03988340F0
:105380001A420FD09C4800F039FC8D4202DCCCD18F
:105390008642CAD940BF07B0F0BCBB46B246A94658
:1053A000A046F0BD0E61EDE762696B0092465B19A5
:1053B000DB009A4453469E68DF6800F01FFC8F4272
:1053C000BADC00D103E1002F00DAE8E05246534690
:1053D00052691B699346049A934200D1D9E0524620
:1053E0000821605E52880004594610439847009097
:1053F00001910099019A0B001000134300D1CEE0F7
:1054000013000A00B61A9F41002806DB7A4800F014
:10541000F5FB009E019F36184F4153469E60DF60AA
:1054200000229A5E002A00DA86E753009918606924
:10543000C900411802938B68C9689B46B94200DDD8
:105440007AE702D1B34200D976E708239C46A44408
:10545000059565462281A446029B2C0006E0530078
:105460009918C90041188D68C968AB469B18DB00C4
:10547000C318B94206DC00D1B3E01C000023E25E91
:10548000002AECDA230064469C4653461A806346A1
:10549000059D1D80A3881BB2002B00DA51E722690D
:1054A000EFF3108172B61368002BFCD0BFF35F8F4F
:1054B0000123A7885B42A3803FB22369BFF35F8FBC
:1054C00000221A6081F31088002F00DA39E72300E8
:1054D000083322009A4666697B00DB19DB00F3186B
:1054E000996850468C460824115FDD68002910DB5E
:1054F000029306E0AB4244D00023E15E2000002985
:1055000006DB4C006418E4003419E368AB42F1DDBB
:10551000029B078000201F5E1980002FDCDA140038
:10552000A379002B00D110E70023A37126000823E4
:10553000E15E08364B1C00D12CE70800A2466569E5
:1055400002E03E004B1C1AD04B005B18DB00EF184A
:105550000A008C46E95E7B881BB2002BF1DA01233E
:105560005B42DC17BB60FC60824205D05346318051
:105570001B893B8053461A8160464B1CE4D154463C
:10558000E5E6A3686345B7D9C2E76B1C00D0EAE63D
:10559000F8E65B4658461B69984700281BD15346DE
:1055A0001B8822692381EFF3108372B611680029EA
:1055B000FCD0BFF35F8F514662880A802269658004
:1055C000BFF35F8F0021116083F31088B4E6864239
:1055D00000D8F8E6B0E65B461A685B680092019373
:1055E00007E7B34500D848E74CE7C046CC34002075
:1055F0003C700540FD52001000400540074810B5C2
:105600000268EFF3108172B61368002BFCD0BFF371
:105610005F8FFCF74FFF0020002110BD8C38002069
:1056200070B52E4C2569002D04D00A212C48FFF7B7
:105630000DFE70BD2B4E0321300000F0D5FAE66060
:10564000FFF7C0F8284B03229C46D02322701B068C
:105650001B6801216370254B6044A3600F23800009
:1056600020610220638063694942A1801980023170
:10567000198647311D83585218315A5275325C3998
:105680009952183201319952183201319952183217
:1056900001319952083518329D520231183299520F
:1056A00018320131995218320131995218320131B0
:1056B00099521832013199521832013199520C4BDA
:1056C0000C49DC6001303562FFF71EFB012103202D
:1056D000FFF7E2FA084B1D60A7E7C046341D002023
:1056E0008C3800200040054040000034FFFF1000CF
:1056F000CC340020FD52001038600540004870474F
:10570000341D0020F8B51F0008AB1B7804001600FC
:10571000002B08D100F07AFA32003B00121A8B41BC
:10572000002B00DA52E02269EFF3108072B61368A2
:10573000002BFCD0BFF35F8F0223E15E63694A0058
:105740005218D2009B182269002936DB1D8865801B
:10575000BFF35F8F0025156080F31088069A9E6066
:10576000DF601A61079A5A615A8801325204520C5A
:10577000101C002A1FD082B25880080410432669EA
:10578000EFF3108772B63268002AFCD0BFF35F8F48
:10579000A2881A80A1802369BFF35F8F00221A605C
:1057A00087F310880A4923788C4601329A40E368CF
:1057B00063441A60F8BD0120DDE7BFF35F8F00236B
:1057C000136080F3108801204042F3E70020F1E7E6
:1057D0003C20000070B501000469EFF3108C72B634
:1057E00020680028FCD0BFF35F8F02200D5E4C695B
:1057F00068004019C00024180869002D36DB26888F
:105800004E80BFF35F8F002606608CF31088E36044
:1058100063880498013320615B0405985B0CA260E7
:1058200060611A1C002B1FD093B2280462801843B9
:105830000A69EFF3108C72B61368002BFCD0BFF32B
:105840005F8F8B8823808D800B69BFF35F8F002271
:105850001A608CF310880B7801329A40CB680849A3
:105860008C4663441A6070BD0122DDE7BFF35F8F91
:10587000002303608CF3108801204042F3E7C04608
:105880003C20000010B543890A1493421ADD5300EE
:105890009B184269DB00D3180469EFF3108C72B6D1
:1058A0002268002AFCD0BFF35F8F5A88090494B2A3
:1058B000090C8A4208D00369BFF35F8F00221A6087
:1058C0008CF31088002010BD8022120214435C80EB
:1058D000012302698371BFF35F8F002111608CF394
:1058E0001088044902788C469340C26801206244C3
:1058F0001360E8E73C20000040787047F0B5CE46E2
:10590000474680B583B004000D0000F07FF92418ED
:105910004D41002D02DA01242D4D64429626764237
:10592000F71736196F41AF4215D812D000F06EF953
:1059300032003B00121A8B41002B18DC002B43D0A5
:105940002000290000F0A0F903B0C0BCB946B04661
:10595000F0BDA642EAD90022002316001F0000F085
:1059600055F932003B00121A8B41002BE6DD00F0A6
:105970004DF932003B00121A8B41002B0ADB002349
:105980000193144B3200009313483B00FFF722FFB2
:105990000130D5D0114BB1469846114E736A9F42E3
:1059A00004D8B26A4A45CBD29F42C9D143461A684D
:1059B000EFF3108172B61368002BFCD0BFF35F8F3A
:1059C0004046FCF743FDE9E7002AB9D0CFE7C046DF
:1059D000FFFFFF7FFD550010341D00208C38002094
:1059E00000400540F0B5CE46474680B583B0040080
:1059F00000F00CF9FA2206000F002000002300211D
:105A0000920000F0FBFF8019794104000D1E02DABC
:105A100001242D4D644296267642F71736196F41C0
:105A2000AF4215D812D000F0F1F832003B00121A44
:105A30008B41002B18DC002B43D02000290000F004
:105A400023F903B0C0BCB946B046F0BDA642EAD9BE
:105A50000022002316001F0000F0D8F832003B009F
:105A6000121A8B41002BE6DD00F0D0F832003B002B
:105A7000121A8B41002B0ADB00230193134B3200D7
:105A8000009313483B00FFF7A5FE0130D5D0114B22
:105A9000B1469846104E736A9F4204D8B26A4A458E
:105AA000CBD29F42C9D143461A68EFF3108172B638
:105AB0001368002BFCD0BFF35F8F4046FCF7C6FC99
:105AC000E9E7002AB9D0CFE7FFFFFF7FFD550010BF
:105AD000341D00208C38002000400540F0B55746AA
