:020000041000EA
:1000000000B5324B212058609868022188439860DF
:10001000D860186158612E4B002199600221596106
:100020000121F02299502B49196001219960352056
:1000300000F044F80222904214D00621196600F024
:1000400034F8196E01211966002018661A6600F04E
:100050002CF8196E196E196E052000F02FF8012189
:100060000842F9D1002199601B49196000215960AB
:100070001A491B48016001219960EB211966A021F2
:10008000196600F012F800219960164914480160C1
:100090000121996001BC002800D000471248134993
:1000A000086003C880F30888084703B5996A0420EC
:1000B0000142FBD001200142F8D103BD02B5186610
:1000C0001866FFF7F2FF186E186E02BD00000240BE
:1000D000000000180000070000035F00212200005C
:1000E000F4000018222000A00001001008ED00E03C
:1000F00000000000000000000000000074B24E7A12
:1001000000200420F7010010C3010010C5010010F9
:10011000C1010010C1010010C1010010C101001097
:10012000C1010010C1010010C1010010C701001081
:10013000C1010010C1010010C9010010CB01001065
:10014000CD010010CD010010CD010010CD01001037
:10015000CD010010CD010010CD010010CD01001027
:10016000CD010010CD010010CD010010CD01001017
:10017000CD010010CD010010CD010010CD01001007
:10018000CD010010CD010010CD010010CD010010F7
:10019000CD010010CD010010CD010010CD010010E7
:1001A000CD010010CD010010CD010010CD010010D7
:1001B000CD010010CD010010CD010010CD010010C7
:1001C00000BE00BE00BE00BE00BE00BEEFF3058054
:1001D000103800BEF2EB8871DC5801100059011094
:1001E0003802001090A31AE71E481F49086006C88D
:1001F00081F3088810471D480068002801D019487D
:10020000F3E70DA40ECC002902D000F012F8F9E7B4
:100210001749184A002000E001C19142FCD116495B
:100220008847164988471649884700BEFDE701C937
:1002300001C29A42FBD3704700590110D000002040
:10024000082000203878011000000420000004205D
:100250003878011000100420001004200000000075
:10026000704700000000000008ED00E0000000D032
:1002700008200020C4320020C15B0010AD0D00102A
:10028000B95B0010F8B5C04606480749091A8B103B
:10029000C90FC91810B5491003D0044B002B00D06A
:1002A000984710BD08200020082000200000000012
:1002B000054B10B5002B03D00449054800E000BFF2
:1002C000FFF7E2FF10BDC0460000000034310020FF
:1002D000943A011010B5114805F05EFE104805F083
:1002E0005BFE104805F058FE0F4805F055FE0F481C
:1002F00005F052FE0E4805F04FFE0E4805F04CFE8C
:100300000D4805F049FE0D4805F046FE0C4805F085
:1003100043FE0C4805F0C4FE10BDC046983A0110DB
:10032000B43A0110D83A0110003B0110203B0110F3
:10033000503B0110843B0110C03B0110E83B011011
:100340002C3C01105C3C011010B5194C19490020DF
:10035000A54413F0D7F8011E26D0012240A80DF0C5
:1003600005F8041E16D1144C03E06946200005F080
:1003700097FE8021684640AA490010F0F1FB002852
:10038000F3D140A80EF04CF8041E03D1D8239B00F3
:100390009D4410BD200012F06FF8084B01002200B0
:1003A000180005F07DFEF1E7054805F0F5FDEDE7E5
:1003B000A0FCFFFF703C0110A03C0110883C011024
:1003C000743C0110F0B5CE46474680B5284C83B04A
:1003D0002100002013F096F8002841D012F0D4FB41
:1003E00021000500002013F08DF8002838D012F00D
:1003F000CBFB21000600002013F084F800282FD04A
:1004000012F0C2FB21000700002013F07BF8002847
:1004100026D012F0B9FB21008046002013F072F8BC
:1004200000281DD012F0B0FB21008146002013F0FF
:1004300069F8002814D012F0A7FBFA22D2006B460C
:10044000944600221A7142465A714A466744D8714E
:1004500068461F809E70DD709A7112F09DF902E06F
:10046000044805F099FD03B0C0BCB946B046F0BDE4
:10047000703C0110743C011070B500202A4913F043
:1004800041F8061E45D0002409E0200000F018FFC6
:100490003100006813F09CF8002809D0013400F006
:1004A0000DFF8442F1D33100204805F0F9FD70BD05
:1004B000200000F005FF0022310000200CF072FE49
:1004C000041E01D01CE0013400F0F8FE844225D265
:1004D000200000F0F5FE3100006813F079F8051EE9
:1004E000F1D1200000F0ECFEA82301229B00C554AE
:1004F000C36901681343C3610D4805F0D1FDD6E718
:1005000011F0BAFF0B4B01002200180005F0C8FDE6
:10051000CDE7002000F0D4FE0668B4E7A82300224F
:100520009B001A70FFDEC046703C0110A43C011015
:10053000E43C0110C83C0110F0B5C64600B5374C8C
:100540003749A544002012F0DDFF18AC0500FF225A
:1005500000212000002D45D003F05EFE2B78002BFB
:1005600042D029002F4805F09BFD5822002102A807
:1005700003F052FE902258AC00215200200003F0FC
:100580004BFE2A002100284B02A80EF013FB051E8B
:100590003AD1264B264D9846264EA37E002B18D0E6
:1005A000237B2F00DA0603D43700DB0700D447464D
:1005B00022686368BD2149000092019369443A00B2
:1005C0001D4805F06DFD210002A80EF099F90028E4
:1005D000E3D002A80EF016F9A0239B009D4480BC36
:1005E000B846F0BD03F018FEFF2120000DF054FFC7
:1005F0002500061EB5D011F03FFF104B0100320060
:10060000180005F04DFDE7E711F036FF0C4B010037
:100610002A00180005F044FDDEE7C04680FDFFFF1C
:10062000703C0110443D01105C3D0110183D01106B
:10063000FC3C0110083D01107C3D0110283D0110DB
:10064000603D011070B5052802D006282DD070BD80
:1006500002F02CFE00291FD0FA220023920003F0A2
:10066000BBF900252900174E040032687368801A10
:100670009941002901D1C8280BD90121124B1348F7
:100680001A784A401A701B78002B0AD0093101F001
:10069000ADFA34607560DAE7FA21890003F05EF99B
:1006A000DFE7092101F0A2FAF3E7084C002120005E
:1006B00000F04EFF200000F005FF0021080003F0CD
:1006C00011F8C04690210020C41200208032002082
:1006D00070B50020194912F015FF051E29D000241D
:1006E00009E0200000F0ECFD2900006812F070FF26
:1006F000002809D0013400F0E1FD8442F1D3290043
:100700000F4805F0CDFC70BD200000F0D9FD80231E
:10071000002200212800DB000EF0DAFB041EF2D0DC
:1007200011F0AAFE074B01002200180005F0B8FCEA
:10073000E9E7002000F0C4FD0568D0E7703C011037
:10074000A43C0110943D011030B50020224983B033
:1007500012F0D8FE051E39D0002409E0200000F078
:10076000AFFD2900006812F033FF00280CD00134DF
:1007700000F0A4FD8442F1D300232900174801931F
:1007800005F08EFC03B030BD200000F099FD38303C
:1007900001906946280001AA0EF098FA041E0CD1B7
:1007A000019B009A5989DB6A4A43023B594352082C
:1007B00049080B4805F074FCE4E711F05DFE094BB5
:1007C00001002200180005F06BFCDBE7002000F0C0
:1007D00077FD0568C0E7C046703C0110A43C0110DD
:1007E000C83D0110AC3D011070B50020284912F041
:1007F00089FE051E42D0002409E0200000F060FDC3
:100800002900006812F0E4FE002809D0013400F04D
:1008100055FD8442F1D329001E4805F041FC70BD0E
:10082000200000F04DFD0122290038300CF0BAFC08
:10083000041E01D019E0013400F040FD844222D2B0
:10084000200000F03DFD2900006812F0C1FE0028E4
:10085000F1D1200000F034FDA82301229B000168A3
:10086000C2540D4805F01CFCD9E711F005FE0B4BF6
:1008700001002200180005F013FCD0E7002000F072
:100880001FFD0568B7E7A82300229B001A70FFDE52
:10089000703C0110A43C0110143E0110FC3D0110FD
:1008A000F0B5D6464F464646C0B52A4C2A48A54420
:1008B00005F072FB294B0A2219000EA89A460CF08B
:1008C00055FD002842D1264B00259946E023DB0147
:1008D00098460427234C244E424623681340234A5B
:1008E000136080223760520023681342FCD0636893
:1008F00001351B042A0049461B0C01A805F0ECF841
:1009000001A812F0A9FE6B46020001A90EA80DF085
:10091000B1FA00280CD1642002F0B2FB802DDBD1AB
:100920000EA80DF07DFD5146114805F0B9FB05E01C
:10093000104805F031FB0EA80DF072FDA6239B00B8
:100940009D44E0BCBA46B146A846F0BD0A4805F051
:1009500023FBF3E768FDFFFF443E0110B0120020C7
:10096000C43E011000C0044000E0044000D0044038
:100970000C3F0110CC3E0110783E011070B5184CB0
:100980000600A5440100012222A80CF0EFFC00287B
:1009900021D13100134805F083FB02AC124D07E072
:1009A000019B002B0CD0E0542100280005F078FBBF
:1009B0007F22210001AB22A80DF026F90028EFD0FC
:1009C00022A80DF02DFD3100084805F069FBBA237F
:1009D0009B009D4470BD064805F0DEFAF7E7C0466F
:1009E00018FDFFFFAC3F0110A03C0110C83F0110F3
:1009F000343F0110F0B5DE4657464E464546E0B559
:100A00009F4CA048A54405F0C7FA9F4F0A22390021
:100A100038A80CF0ABFC002800D026E19B4838A990
:100A200010F0D4FA002800DA23E100239B46984B0B
:100A3000B94698465F46464616AB9A46954B139381
:100A400037223B2308A9891808AA94460B7037213E
:100A50003A3B61440A0000936821300012F080F8AC
:100A6000002106238846524600913000683112F07A
:100A700081F851460B883722D9BA8B465146432319
:100A80004D888C8808A9891808AA94460B703721CC
:100A9000423B61440A0000936821300012F060F884
:100AA00041460623524600913000683112F062F848
:100AB0003722412308A98A188C4613703722403BFD
:100AC000624468210093300012F04AF843465246CF
:100AD000682100933000023312F04CF853461B8813
:100AE0005846DBBA984603F009FBE221890503F07A
:100AF000FEFAEDBA8346280003F000FBE2218905E7
:100B000003F0F5FAE4BA051C200003F0F7FAE2213D
:100B1000890503F0ECFA041C281C03F011FB0C906F
:100B20000D91201C03F00CFB02000B000C980D999A
:100B30000E920F9303F030FA10901191291C281C8B
:100B400003F0D5FA211C051C201C03F0D0FA011C6F
:100B5000281C03F0B5FA03F0F3FA03F015FA0D00C0
:100B60008021040009065944080003F0E9FA220034
:100B70002B0003F011FA040040460D0003F0B8F911
:100B80000022454B03F02FF90022444B03F026F9D5
:100B900000220A900B91424B2000290003F03DF9FE
:100BA000404A414B03F01FF903F0E6F903F0C8FA9D
:100BB00000220890099110981199394B03F02DF9F2
:100BC000384A394B03F00FF903F0D6F903F0B8FABD
:100BD0000E9B0F9C069007915846049305940C9B1E
:100BE0000D9C0293039403F0ABFA0137009001913E
:100BF0003B008021139A18A804F084FF0023020010
:100C000018A938A80DF036F9002818D10A213800A3
:100C100002F07CFE002907D0642002F031FA642F34
:100C200000D00DE74F4610E03900204805F038FAB3
:100C3000642002F025FA642F00D001E7F2E7BB46FA
:100C40001B4859464F4605F02BFA38A80DF0E8FB33
:100C50003900184805F024FAD1239B009D44F0BCCC
:100C6000BB46B246A946A046F0BD134805F094F92C
:100C7000F2E7124805F090F938A80DF0D1FBEBE748
:100C8000BCFCFFFFF03F01101C4001102C40011084
:100C9000901A002080400110004075400000324052
:100CA00000806640182D4454FB210940D8400110B3
:100CB000A4400110F8400110783E01105840011086
:100CC00030B5052085B0D02401F060FA2023240639
:100CD000A36200220121052001F0CAF92C4D012256
:100CE0002B000421052001F0E9F9062001F04EFA5D
:100CF00040230022A3620121062001F0B9F901225C
:100D00002B000421062001F0D9F90A2001F03EFA57
:100D10008023DB0063621F4C1F49200011F0F8FEA6
:100D20000321002001F08AF90321012001F086F956
:100D300000220121002001F09BF900220121012065
:100D400001F096F9154805F027F9154805F024F942
:100D500000256A46134B68219381200003AA0223D1
:100D6000009511F0FDFE642002F08AF96B466821BF
:100D70005D7303AA02232000009511F0F1FE0A2002
:100D800002F07EF9084800F0F1FC05B030BDC04625
:100D900045060010901A0020801A0600204101101C
:100DA000344101106B80FFFF80320020F0B5DE4639
:100DB00057464E464546E0B5A3B0FFF781FF05F024
:100DC00051F8DD4802F05CF911F062FB11F05CFDB6
:100DD000DA4D280000F024FDD94805F0DDF8D948A7
:100DE00005F05EF9D84B1800169305F059F905F097
:100DF00025F8FFF76FFAD54BD54F0993D54BD64E53
:100E00000A93D64B1D93D64B1793D64B1893D64BBC
:100E10001993D64B1A93D64B1B93D64B1C93D64B98
:100E20001E93D64B2093D64B2193D64B1F93D64B74
:100E30001593D64B0F93D64B1093D64B1193D64B9D
:100E40009846D64B1493D64B1393D64B0B93D64B55
:100E50000C93D64B0D93D64B0E93D64B1293D64B89
:100E60009B46D64B9A46D64B9946D64B0393D64BC8
:100E70000493D64B0593D64B0693D64B0793D64B8C
:100E80000893D64B0193D64B02934346B8461F00B6
:100E90003CE005F037F804F0D1FF0D2C00D1A9E0BB
:100EA00043461B68082C00D189E07F2C00D186E0E6
:100EB000FE2B04D80A9AD454424601331360612CA5
:100EC00000D185E0622C61D0632C00D08CE11098B9
:100ED00005F062F80221280000F088FEFFF72CFBE5
:100EE000C04802F0CDF8FA21FA2249000A2000F0A9
:100EF0000DFF280000F04AFD119805F04DF8300074
:100F000005F0CEF8FA20400002F0BAF8002004F014
:100F1000ADFF0400831CF5D06022099B1B5C93434A
:100F2000B7D10D2861D0082800D19BE17F207F2C0C
:100F3000C5D104F0E7FF04F081FF43461B68002B96
:100F4000E0D04246013B136000220A99CA54672C44
:100F500000D0B1E00E9805F01FF80621280000F03F
:100F600045FEFFF7B5FB9F4802F08AF8FA21FA2206
:100F700049000A2000F0CAFE280000F007FD129880
:100F800005F00AF8300005F08BF8BBE70F9805F084
:100F900003F80121280000F029FEFFF76DFA9148BF
:100FA00002F06EF8FA21FA2249000A2000F0AEFEA3
:100FB000280000F0EBFC300005F072F8A2E7002BEF
:100FC000A0D04246013B136000220A99CA5499E717
:100FD000280000F073FD159804F0DEFF00212800C2
:100FE00000F004FEFFF700FCD9E70D2004F08AFFB3
:100FF00004F024FF0A2004F085FF04F01FFF802185
:101000000A98490012F06EFA002800D12CE11799D5
:101010000A9812F077FA041E3FD00100189812F0D7
:10102000D7FA002800D125E12100199812F0D0FA52
:10103000002800D128E121001A9812F0C9FA0028EE
:1010400000D123E121001B9812F0C2FA002800D140
:101050001EE121001C9812F0BBFA002800D119E112
:1010600023786C2B06D16378732B03D1A378002BE4
:1010700000D111E121001E9812F0AAFA002800D137
:101080000CE12100209812F0A3FA0722002800D1D9
:10109000F1E021001F9805F003F800234246136099
:1010A0008022002152000A9803F0B6F8169804F046
:1010B000F7FF04F0C3FE25E7692C08D107212800BB
:1010C00000F094FD01233B70FFF794FC67E7682C68
:1010D00000D017E70821280000F088FD584604F0EA
:1010E0005BFF504604F058FF484604F055FF039854
:1010F00004F052FF049804F04FFF059804F04CFFF1
:10110000069804F049FF079804F046FF089804F099
:1011100043FF019804F040FF029804F0C1FF3148FA
:1011200001F0AEFFFA21FA220A20490000F0EEFD9C
:10113000280000F02BFCE5E6881300008032002038
:101140004C4101106041011068410110D957011054
:1011500024310020C02B0020D04101106C4101102F
:10116000703C011070410110784101108041011064
:101170008841011090410110984101109C410110DB
:10118000A44A0110A4410110BC410110F441011016
:10119000144201103C420110C41200201C400110F6
:1011A000B012002054420110744201109442011008
:1011B000AC420110E4420110983A0110B43A011017
:1011C000D83A0110003B0110203B0110503B0110A8
:1011D000843B0110C03B0110E83B01102C3C011086
:1011E0005C3C0110DC050000642C1DD103212800AB
:1011F00000F0FCFC3B78002B12D01498FFF7BEFBEC
:101200002D4801F03DFF9621C82249000A2000F038
:101210007DFD280000F0BAFB0B9804F041FF71E659
:101220001398FFF7ABFBEBE7652C39D10C9804F072
:10123000B3FE0421280000F0D9FCFFF785FA1E4810
:1012400001F01EFFFA21FA2249000A2000F05EFD9B
:10125000280000F09BFB0D9804F09EFE300004F087
:101260001FFF4FE6082064E61D9804F019FF04F004
:10127000E5FD47E6002253009B18219A9B00944607
:1012800063445B68984708E70122F4E70222F2E72B
:101290000322F0E70422EEE70522ECE70622EAE764
:1012A000662C00D053E60521280000F09FFC0023A7
:1012B0003B70FFF7F5FA72E6DC050000012070478D
:1012C000012805D8AE239B005843024BC018704735
:1012D0000020FCE7C812002001207047012805D833
:1012E00003011818024B8000C01870470020FCE76B
:1012F0008015002070B506000025AE2382B014369C
:101300000400C178437532004068AC3B009511F091
:1013100027FC2023E1786375320060681E3B00954E
:1013200011F01EFC0123E17863753200606801331F
:10133000009511F015FC4023E17863753200606878
:101340003E3B009511F00CFCA123E178637532005F
:1013500060689F3B009511F003FCA823E17863755A
:1013600032006068A63B009511F0FAFB3F23E1785C
:101370006375320060683D3B009511F0F1FBC823B6
:10138000E178637532006068C63B009511F0E8FBB8
:10139000D323E178637532006068D13B009511F08A
:1013A000DFFBE1783200606865750223009511F07B
:1013B000D7FBDA23E178637532006068D83B00958B
:1013C00011F0CEFB1223E178637532006068103BA8
:1013D000009511F0C5FBD523E17863753200606894
:1013E000D33B009511F0BCFB8023E178637532009C
:1013F00060687E3B009511F0B3FBD923E1786375FB
:1014000032006068D73B009511F0AAFBF123E17828
:10141000637532006068EF3B009511F0A1FBDB23A0
:10142000E178637532006068D93B009511F098FB54
:101430003023E1786375320060682E3B009511F02F
:101440008FFB8123E1786375320060687F3B0095F4
:1014500011F086FBFF23E178637532006068FD3B85
:10146000009511F07DFBA423E1786375320060687C
:10147000A23B009511F074FBA623E178637532005E
:101480006068A43B009511F06BFB8D23E1786375D8
:10149000320060688B3B009511F062FB1423E17809
:1014A000637532006068123B009511F059FBAF2361
:1014B000E1786375606832000095AD3B11F050FB38
:1014C00002B070BD70B5060000252123040082B073
:1014D0001436C1784375320040681F3B009511F007
:1014E0003FFBE1783200606865750223009511F0DA
:1014F00037FB2378E178013B637532006068022393
:10150000009511F02DFB2223E178637532006068AD
:10151000203B009511F024FBE1783200606865758E
:101520000223009511F01CFBA378E178013B637561
:10153000320060680223009511F012FB2369E26813
:10154000E1786068009511F00BFB02B070BDC046F9
:101550004378F0B5002B1FD0072300269C460127B7
:10156000047800291ED1002C16D063463D0033407C
:101570009D400023ED43F2080132C4680133A15CB1
:10158000DBB22940A154047808329C42F5D80136D8
:101590004378F6B2B342E6D8F0BD01364378F6B2EE
:1015A000B342F9D9002CF7D063463D0033409D404B
:1015B0000023F2080132C4680133A15CDBB2294385
:1015C000A154047808329C42F5D8E6E7F0B5DE462F
:1015D00057464E464546E0B589B0872900D1BEE062
:1015E000802900D998E0CC005E496418D71DFFB26D
:1015F000FF00791C0591911DC9B2C90001318C46CB
:1016000008218846A04441460791D100013188460F
:10161000511CC9B2C90001318946911CC9B2C90027
:1016200001310291D11CC9B2C90001310191111DD2
:101630000532C9B2D2B2C900D200013101321B1B3E
:101640000126A3460491039206934FE0A5434C461E
:101650003D70E518C4686719655D0224144200D026
:101660007AE08D43029C3D70E518C4686719655D9A
:10167000042414426DD18D43019C3D70E518C4686B
:101680006719655D0824144260D18D43049C3D7048
:10169000E518C4686719655D1024144253D18D4361
:1016A000039C3D70E518C4686719655D20241442E9
:1016B00046D18D4364463D701D19C4686719655D48
:1016C0004024144239D18D43059C3D70A246C76821
:1016D0005344FD18D209FB5C002A1FD18B432B70A9
:1016E00001239A46079BD3449B451FD05B461A783B
:1016F000069B444619005944C9B2CB08E518C46892
:101700006719655D0724214034008C402100164292
:101710009CD02543EDB29AE7124C67E70B432B7040
:1017200001239A46079BD3449B45DFD109B0F0BC07
:10173000BB46B246A946A046F0BD0D43EDB2C3E795
:101740000D43EDB2B6E70D43EDB2A9E70D43EDB29F
:101750009CE70D43EDB28FE70D43EDB282E7024CFB
:1017600044E7C046C4150020BC190020F8B50400A9
:10177000274D2849280011F0CBF903210E2000F055
:101780005DFC03210F2000F059FC002201210E20F6
:1017900000F06EFC002201210F2000F069FC1E4BBE
:1017A0001E48012123606560206102F015FD402381
:1017B000037040332375E0602000FFF79BFD20009D
:1017C000FFF780FE6378002B1ED0072300269C467F
:1017D00001272178002917D063463D0033409D4002
:1017E000ED430023F208EDB20132E0680133815C81
:1017F000DBB229408154217808328B42F5D301367F
:101800006378F6B2B342E5D82000FFF75BFEF8BD7F
:10181000881A0020801A06008040083C010400005D
:10182000F0B5C64600B543780400002B1ED0072350
:1018300000269C4601270178002917D063463D0009
:1018400033409D40ED430023F208EDB20132E068E1
:101850000133815CDBB229408154217808328B420C
:10186000F5D301366378F6B2B342E5D8802601237A
:101870000127414D7642E168CA5C3A43CA54E068A8
:10188000D91D425C083332434254AB42F3D10122AA
:101890000023072794463A0060461A409040E668C5
:1018A000D9084D1CC2B2705D0133104370553348E6
:1018B000DBB28046E0684144455C2A434254402BF9
:1018C000E9D1032618252E4F14E02A0008353300ED
:1018D0002000EDB2FFF77AFE2A00237808320137A4
:1018E0009A4202DB00250836F6B2330062780833EC
:1018F000934202DA39780029E7D119262025214FB1
:1019000014E02A00083533002000EDB2FFF75EFE38
:101910002A002378083201379A4202DB0025083674
:10192000F6B2330062780833934202DA397800293C
:10193000E7D123260425144F14E02A00083533008C
:101940002000EDB2FFF742FE2A002378083201376B
:101950009A4202DB00250836F6B23300627808337B
:10196000934202DA39780029E7D12000FFF7AAFD77
:1019700080BCB846F0BDC04601040000F903000079
:101980004C4401105844011064440110F0B5C6469F
:1019900000B543780400002B1ED0072300269C4688
:1019A00001270178002917D063463D0033409D4050
:1019B000ED430023F208EDB20132E0680133815CAF
:1019C000DBB229408154217808328B42F5D30136AD
:1019D0006378F6B2B342E5D8802601230127334D60
:1019E0007642E168CA5C3A43CA54E068D91D425C59
:1019F000083332434254AB42F3D10122002307277C
:101A000094463A0060461A409040E668D9084D1C5A
:101A1000C2B2705D0133104370552548DBB2804679
:101A2000E0684144455C2A434254402BE9D11926E1
:101A30002025204F14E02A00083533002000EDB2A5
:101A4000FFF7C4FD2A002378083201379A4202DBEF
:101A500000250836F6B2330062780833934202DA82
:101A600039780029E7D123261C25134F14E02A00DA
:101A7000083533002000EDB2FFF7A8FD2A002378D7
:101A8000083201379A4202DB00250836F6B23300ED
:101A900062780833934202DA39780029E7D12000CE
:101AA000FFF710FD80BCB846F0BDC0460104000041
:101AB000F90300007444011080440110F0B5C646DB
:101AC00000B543780400002B1ED0072300269C4657
:101AD00001270178002917D063463D0033409D401F
:101AE000ED430023F208EDB20132E0680133815C7E
:101AF000DBB229408154217808328B42F5D301367C
:101B00006378F6B2B342E5D8802601230127334D2E
:101B10007642E168CA5C3A43CA54E068D91D425C27
:101B2000083332434254AB42F3D10122002307274A
:101B300094463A0060461A409040E668D9084D1C29
:101B4000C2B2705D0133104370552548DBB2804648
:101B5000E0684144455C2A434254402BE9D11926B0
:101B60002025204F14E02A00083533002000EDB274
:101B7000FFF72CFD2A002378083201379A4202DB56
:101B800000250836F6B2330062780833934202DA51
:101B900039780029E7D123261C25134F14E02A00A9
:101BA000083533002000EDB2FFF710FD2A0023783E
:101BB000083201379A4202DB00250836F6B23300BC
:101BC00062780833934202DA39780029E7D120009D
:101BD000FFF778FC80BCB846F0BDC04601040000A9
:101BE000F90300008C44011098440110F8B54746F1
:101BF000CE4680B5437804008846002B1ED00723CC
:101C000000269C4601270178002917D063463D0035
:101C100033409D40ED430023F208EDB20132E0680D
:101C20000133815CDBB229408154217808328B4238
:101C3000F5D301366378F6B2B342E5D843460A2BB2
:101C400059D82E4A9B009E58012280270123944692
:101C50002B4D7F426046E168CA5C0243CA54E0688B
:101C6000D91D425C08333A434254AB42F2D10722B9
:101C70009446063A00239046624640461A409040F9
:101C8000E768D9084D1CC2B2785D0133104378551E
:101C90001C48DBB28146E0684944455C2A43425413
:101CA000402BE9D1300011F0D7FC8025C0002D1A5F
:101CB0006D101C27EDB214E02A0008353B0020000F
:101CC000EDB2FFF783FC2A002378083201369A42EE
:101CD00002DB00250837FFB23B00627808339342ED
:101CE00002DA31780029E7D12000FFF7EBFBC0BC16
:101CF000B946B046F8BD044EA6E7C046044B0110F5
:101D000001040000F9030000EC3F0110F8B5CE46D5
:101D100047460C00160080B58046154801F0F6FDD8
:101D2000FA217443050047108900200001F0EEFD00
:101D3000FA2381469B009C4216DB434601269E40C7
:101D4000D0231B0600249846ED174346380029008F
:101D50005E6101F01FF94346380029009E6101349D
:101D600001F018F9A145F0DCC0BCB946B046F8BD99
:101D700040420F00D0231B061B68AC4A9900F0B507
:101D8000DE468B4651585A4253412F2257464E4603
:101D900045465B4293439A46A54BE0B59C4683B0CB
:101DA00000260191E244002938D0A24B99465246C0
:101DB000F30808339B009D580123340098460836E9
:101DC000002D22D00F212000294001342D090029A7
:101DD00019D04B465A469A580300C240203BDB17A5
:101DE0001340424613420CD107220F0002409200DA
:101DF00097403A00C308904F3C339B00DA51019B57
:101E00009847002D01D0B442DCD3202ECFD103B0AF
:101E1000F0BCBB46B246A946A046F0BD854E5F4623
:101E200000210F23B346CC0822005046083292000E
:101E30001258002A00D1D0E0180010408046100946
:101E400013421AD05D46ED59A94620256D42AC4695
:101E50008C446546ED17AC464D46CD40A9466546D7
:101E60004E4635400126354204D14646724D3C343B
:101E7000A4006651002800D1AFE01C000440A44635
:101E8000140A03421AD0481C80465846C059464698
:101E900081464D460800F5401F38C01728400125EF
:101EA000284208D165462D01AC46F0086646624DD1
:101EB0003C3080004651002C00D18EE018002040BC
:101EC0008446100B234211D08C1CA0465C46E4597A
:101ED0004646A1464D460C00F5401E3CE4172C40FA
:101EE00001252C4200D182E0002876D01C0004405D
:101EF000A446140C034210D0C81C80465846C05952
:101F0000464681464D460800F5401D38C01728401A
:101F10000125284275D0002C5FD018002040804653
:101F2000100D23420ED00C1DA4466546414CE459C9
:101F3000EC40A1460C004D461C3CE40F2C426AD0FC
:101F400000284AD01C000440A446140E034218D0B6
:101F5000481D804645463748C059E840814608003C
:101F60004D461B38C00F284209D165462D05AC46A9
:101F700040466646C008304D3C3080004651002C3B
:101F80002BD0180020408446120F23422AD0294823
:101F90008C1D8146C059E0408046080045461A38ED
:101FA000C00F284206D1E0086446234D3C30240689
:101FB00080004451002A10D04846C059CC1DE04052
:101FC0008446080065461938C00F284205D1E0084C
:101FD0003C30194C1207800002510831202900D0F2
:101FE00021E714E7002AF8D012488146E4E7654665
:101FF0002D02AC46F40866460F4D3C34A4006651F1
:1020000072E765462D03AC46F00866460A4D3C3043
:10201000800046517FE745462D04A8466446464663
:10202000E408054D3C34A400665189E7A82B002044
:10203000304101406431002000400140094A8300E2
:102040009A1810B514684022544080322240064C41
:10205000C000A44663441A60044B9C46604441603F
:1020600010BDC04604C0014004D001400040014002
:10207000074B8000C3181B68C90092000A435A40EE
:102080000C231340034A9446604403607047C046E3
:1020900004C0014004D00140064B8000C3181B68F7
:1020A000054A090159409446302360440B400360BF
:1020B0007047C04604C0014004D00140F8B5454611
:1020C0009846D0231B06DE461C689B462B4B574682
:1020D0009A46A3004E469946E0B5534616004A4636
:1020E0009B5807000D00002B34D04346002B3FD0F7
:1020F00053464A4641469950D0231B061C6863420A
:102100005C412F220720634293431D4A3840944686
:10211000FA081100800085403C311A486344890068
:1021200092000D509B18002E0ED0802292019446F2
:10213000634401210D201D6000F00AF9F0BCBB468C
:10214000B246A946A046F8BDC02292019446634417
:102150001D60F3E74346002BD1D0534641460D2086
:1021600099500022084900F055F95B461C68C6E703
:102170000D20054900F048FABAE7C046A82B002018
:102180003041014000400140751D00100123D02264
:102190008340120693629361094A83009A1811687A
:1021A0004022514080320A400649C0008C466344B8
:1021B0001A60054B9C460523604443607047C04647
:1021C00004C0014004D00140004001408023DB05F1
:1021D0001868000F7047C0460FB400B5084883B0B8
:1021E00003F0DAFE049B002B07D005A9180001912B
:1021F00003F0AEFC034803F0CFFE012003F0C0FC67
:1022000050450110303F011070B5EFF3108C72B6DD
:102210000D4D2B68002BFCD0BFF35F8F0724CB083C
:10222000C618C05C01230C40A3401C0004400342BC
:1022300007D118433070BFF35F8F2C608CF3108888
:1022400070BD1000FFF7C8FF2C0100D0F8B547465D
:10225000CE46884680B5EFF3108C72B61C4D2C68C4
:10226000002CFCD0BFF35F8F9A4222D807210126B1
:10227000894602E00132934218D34D46370015409B
:10228000AF40D4080119045D2742F3D110003C434C
:102290000C70BFF35F8F00220D4B1A608CF3108817
:1022A00000280EDBC0BCB946B046F8BD0120404254
:1022B000EFE7BFF35F8F00232B608CF310880120C2
:1022C00040424346002BEDD00898FFF785FFC046FB
:1022D0002C0100D0044A1078431CDBB2172B00D924
:1022E000102313707047C046CC19002010B5064B60
:1022F000064C82B00100009318221F232000FFF734
:10230000A5FF02B010BDC04660450110B82B0020EB
:102310000021044B044ABFF35F8F02C39342FAD1FA
:102320007047C046000100D0800100D0054B064A2E
:102330001360064A136053609360D3601361536166
:10234000936170478080808000E400E004E400E056
:102350001F2318401E3B8340002905D0C021044A9A
:102360004900535013607047802201498B50FAE7AF
:1023700000E100E001228240034B1B6813405A1E1B
:102380009341D8B27047C04600E100E0012383408A
:10239000014A13607047C04600E200E0064B10306F
:1023A0009B688000C358054A00209B1A2F229A423E
:1023B0004041C0B27047C04600ED00E0D019002097
:1023C00070B50D00EFF3108672B60F4A1368002B3C
:1023D000FCD0BFF35F8F0D4B10309B6884001B59FE
:1023E0000B4A934203D09D4201D001F0B1F9074B53
:1023F0009B681D51BFF35F8FBFF35F8F0022024BBD
:102400001A6086F3108870BD240100D000ED00E052
:10241000CD010010F0B557464E46DE464546E0B5C4
:1024200085B0060000911700EFF3108B72B66A4A70
:102430001368002BFCD0BFF35F8F0025674B5D57FF
:102440009A46002D00DAA9E06B00654C01935B19F8
:102450009B009846A146C1444B4652469B79103694
:102460001370604BB6009B6899590B1B2F2B33D907
:102470005D4B994200D0ACE0019B42469C465B4BD1
:102480006544AD0063535A4B0232A218043B9B1AB9
:102490001B05584A5B0D651913436B80564B012190
:1024A000AB80FF23AB71009BEF71AB604B460B43DE
:1024B00019004C4B9B689951BFF35F8FBFF35F8F3F
:1024C0000022454B1A608BF3108805B0F0BCBB4668
:1024D000B246A946A046F0BD01200A008243D37946
:1024E0008C46BB4231D84546130044491B1B5B4117
:1024F0005943090D3D4B63533D4B02356519043B70
:102500005B1B1B053B4D5B0D2B43AA464D466B8069
:102510000425AC465546E044131F44441B1B1B05D1
:102520005B0D1D434B46997100999D80996049460A
:10253000DF71334B01431360BBE75800C0188000C4
:102540002018C179B9422FD902000623D356002B97
:10255000F3DA02932B4B61460393131D9A4604232F
:102560005B429C46E14450464B461B1A1B055B0DE3
:102570009C46204B957198466346404603439380A2
:10258000019B5A199200039BA418A380029B1C4A2A
:10259000A371009B2260E771A3608AE701F0D8F87D
:1025A000002553465D574FE7908802934005131D61
:1025B0009A46031561469C464046D444634604301F
:1025C0002018181AE0230005400D1B021843039041
:1025D000C5E701F0BDF84FE7240100D0BD3200206F
:1025E000D019002000ED00E0CD01001000A1FFFF98
:1025F000001A002000E0FFFF01BDFFFFAAAA0000B3
:102600000148804701BD0000F0B5DE4657464E4602
:102610004546E0B50C0083B0EFF3108872B6634A0C
:102620001368002BFCD0BFF35F8F614B61499A6840
:10263000030010339F00D55901938D4243D0A5422A
:1026400054D05D4EAA1B2F2A3DD85C4B9B461B687D
:10265000994601231A009C4682404B4613401F2294
:1026600099466346024093409A4680225B46504614
:102670009850BFF35F8FEFF305839B46002B37D055
:10268000019B5B4501D001F063F801232A009A43C6
:102690009068844208D176E04B005B189B00F318E9
:1026A0009868844236D01A00062151560029F3DA80
:1026B000844254D04B46002B27D0C02251463F4B7A
:1026C0005200995019603A4B9B68DD51BFF35F8F00
:1026D000BFF35F8F0022354B1A6088F3108803B078
:1026E000F0BCBB46B246A946A046F0BD0D00EAE7E5
:1026F0002A0063469A4390688442D5D1062010563A
:10270000130000280ADA0D0031E0802351462B4ADD
:10271000D150D8E706201856002821DB42001118B6
:10272000890074188B46A1689960E179D9710621F6
:1027300061569971002924DBA488F11A64052415D7
:102740005C44091909051E4C490D21439980131851
:102750001C4A9B001178F31899711070AAE71300B6
:102760005946002914D1FF319171174991801549BB
:102770000A789A71154A9B1B5B415A43120D0A70E5
:1027800098E71149E2E70620105613000028C5DA41
:102790000F4A1049D21A083A5002400D014399805D
:1027A0000D4952080A43DA8084E7C046240100D06C
:1027B00000ED00E0CD010010D019002000E100E0A4
:1027C00000E0FFFFBD32002001BDFFFFAAAA00000C
:1027D0000A1A002000F0FFFF00F8FFFF70B5012487
:1027E0000443EFF30581EFF3108C72B6214A1368AE
:1027F000002BFCD0BFF35F8F1F4B05001F4AED1A63
:102800006D416A43120D1E4D8900AE6852B2765872
:10281000A6421CD00621595691421CD0122159566D
:10282000914222D01E215956914220D02A21595638
:102830000324914210D0134B19781A708171BFF3A1
:102840005F8F00220B4B1A608CF3108870BDAB6851
:102850000D4C5C50EFE700246100091989005B18FA
:10286000FF21997109499980E5E70124F4E70224E1
:10287000F2E7C046240100D0D0190020AAAA000027
:1028800000ED00E0BD320020CD01001001BDFFFFD2
:1028900010B5084B084C82B00100009300220523BC
:1028A0002000FFF7D3FC002801DB1F23181A02B019
:1028B00010BDC0467C450110C132002070B5040037
:1028C0000E001500FFF706FD0100200000F006F8DD
:1028D000A680E580BFF35F8F70BDC046024B9C466B
:1028E00061448900016070474000003470B5114CAC
:1028F000114DAC420FD2FF262368002B0CD0FFF7FE
:10290000E9FC01002000FFF7E9FFA680BFF35F8F1D
:102910000834AC42F0D370BDFFF7DCFC01002000AE
:10292000FFF7DCFF2671BFF35F8F0834AC42E3D3BF
:10293000F1E7C046F01F00200820002010B5040079
:10294000FFF7C8FC01002000FFF7C8FFFF23237139
:10295000BFF35F8F10BDC04610B504000120FFF724
:10296000C5FC034BC3189B002360BFF35F8F10BDF2
:1029700040000034034B9C46614489000160BFF372
:102980005F8F7047400000340A4B1968EFF31080E6
:1029900072B60A68002AFCD0BFF35F8F1B68BFF3D2
:1029A0005F8F00221A6080F3108840BF0020002152
:1029B0007047C04678320020F0B5DE4657464E4696
:1029C0004546E0B587B0EFF30583032201251A40A1
:1029D000954091008846A946B34B03925C58B34B8F
:1029E0001D60B34B04934B46B24843630823E55E36
:1029F000002D37DAA3881BB2002B00DBADE0A379F2
:102A0000002B00D0EEE00823E05E002820DB43002E
:102A100062691B18DB00D3189E68DD68731C00D147
:102A200011E1A44801004144826A0B69B71A9B1A5C
:102A30009F4215D30123026A039883401A420FD0A4
:102A40009C4800F02BFC8D4202DCCCD18642CAD9D6
:102A500040BF07B0F0BCBB46B246A946A046F0BD99
:102A60000E61EDE762696B0092465B19DB009A44E8
:102A700053469E68DF6800F011FC8F42BADC00D13B
:102A800003E1002F00DAE8E05246534652691B6921
:102A90009346049A934200D1D9E052460821605EE1
:102AA00052880004594610439847009001910099BC
:102AB000019A0B001000134300D1CEE013000A006E
:102AC000B61A9F41002806DB7A4800F0E7FB009E1B
:102AD000019F36184F4153469E60DF6000229A5E88
:102AE000002A00DA86E7530099186069C900411886
:102AF00002938B68C9689B46B94200DD7AE702D130
:102B0000B34200D976E708239C46A4440595654660
:102B10002281A446029B2C0006E053009918C900AC
:102B200041188D68C968AB469B18DB00C318B942D1
:102B300006DC00D1B3E01C000023E25E002AECDAE0
:102B4000230064469C4653461A806346059D1D80BB
:102B5000A3881BB2002B00DA51E72269EFF3108142
:102B600072B61368002BFCD0BFF35F8F0123A788D8
:102B70005B42A3803FB22369BFF35F8F00221A60DC
:102B800081F31088002F00DA39E723000833220090
:102B90009A4666697B00DB19DB00F318996850469A
:102BA0008C460824115FDD68002910DB029306E0E3
:102BB000AB4244D00023E15E2000002906DB4C003C
:102BC0006418E4003419E368AB42F1DD029B07802E
:102BD00000201F5E1980002FDCDA1400A379002B7F
:102BE00000D110E70023A37126000823E15E083618
:102BF0004B1C00D12CE70800A246656902E03E00AC
:102C00004B1C1AD04B005B18DB00EF180A008C46F7
:102C1000E95E7B881BB2002BF1DA01235B42DC17F3
:102C2000BB60FC60824205D0534631801B893B80EB
:102C300053461A8160464B1CE4D15446E5E6A3682E
:102C40006345B7D9C2E76B1C00D0EAE6F8E65B46FD
:102C500058461B69984700281BD153461B88226998
:102C60002381EFF3108372B611680029FCD0BFF303
:102C70005F8F514662880A8022696580BFF35F8F4B
:102C80000021116083F31088B4E6864200D8F8E68C
:102C9000B0E65B461A685B680092019307E7B345AC
:102CA00000D848E74CE7C046543100203C7005404E
:102CB000B92900100040054070B52E4C2569002D43
:102CC00004D00A212C48FFF709FE70BD2B4E0321CA
:102CD000300000F0D9FAE660FFF7FCFA284B032237
:102CE0009C46D02322701B061B6801216370254B74
:102CF0006044A3600F238000206102206380636929
:102D00004942A18019800231198647311D835852EA
:102D100018315A5275325C39995218320131995230
:102D2000183201319952183201319952083518324E
:102D30009D5202311832995218320131995218328B
:102D40000131995218320131995218320131995298
:102D50001832013199520C4B0C49DC60013035625C
:102D6000FFF72EFB01210320FFF7F2FA084B1D604D
:102D7000A7E7C046181A002078320020004005401E
:102D800040000034FFFF100054310020B92900102A
:102D90003860054000487047181A0020F8B51F0039
:102DA00008AB1B7804001600002B08D100F07EFA57
:102DB00032003B00121A8B41002B00DA52E02269EC
:102DC000EFF3108072B61368002BFCD0BFF35F8F57
:102DD0000223E15E63694A005218D2009B182269FF
:102DE000002936DB1D886580BFF35F8F00251560E5
:102DF00080F31088069A9E60DF601A61079A5A6114
:102E00005A8801325204520C101C002A1FD082B280
:102E10005880080410432669EFF3108772B63268B1
:102E2000002AFCD0BFF35F8FA2881A80A18023699B
:102E3000BFF35F8F00221A6087F310880A49237856
:102E40008C4601329A40E36863441A60F8BD012061
:102E5000DDE7BFF35F8F0023136080F3108801204C
:102E60004042F3E70020F1E73C20000070B501008C
:102E70000469EFF3108C72B620680028FCD0BFF311
:102E80005F8F02200D5E4C6968004019C000241855
:102E90000869002D36DB26884E80BFF35F8F002641
:102EA00006608CF31088E360638804980133206126
:102EB0005B0405985B0CA26060611A1C002B1FD09C
:102EC00093B22804628018430A69EFF3108C72B63B
:102ED0001368002BFCD0BFF35F8F8B8823808D801D
:102EE0000B69BFF35F8F00221A608CF310880B7898
:102EF00001329A40CB6808498C4663441A6070BD21
:102F00000122DDE7BFF35F8F002303608CF310889D
:102F100001204042F3E7C0463C20000010B5438941
:102F20000A1493421ADD53009B184269DB00D31840
:102F30000469EFF3108C72B62268002AFCD0BFF34C
:102F40005F8F5A88090494B2090C8A4208D0036939
:102F5000BFF35F8F00221A608CF31088002010BD31
:102F60008022120214435C80012302698371BFF343
:102F70005F8F002111608CF31088044902788C4621
:102F80009340C268012062441360E8E73C200000DF
:102F900040787047F0B5C64600B582B004000D0019
:102FA00000F084F924184D41002D02DA01242F4D40
:102FB000644206267642F71736196F41AF4214D89D
:102FC00011D000F073F932003B00121A8B41002B34
:102FD00015DC002B46D02000290000F0A5F902B036
:102FE00080BCB846F0BDA642EBD90026002700F011
:102FF0005DF932003B00121A8B41002BE9DD00F035
:1030000055F932003B00121A8B41002B0ADB0023DA
:103010000193174B3200009316483B00FFF726FF41
:103020000130D8D000233900B0469C46124A1348DC
:10303000536A994204D8966A4645CCD29942CAD17D
:103040000668EFF3108772B63368002BFCD0BFF32D
:103050005F8F0368BFF35F8F66461E6087F310883B
:1030600020BFE5E7002AB6D0C9E7C046FFFFFF7FD3
:1030700089290010181A00200040054078320020ED
:10308000F0B5C64600B582B0040000F00FF9FA2290
:1030900006000F00200000230021920000F0F0FF46
:1030A0008019794104000D1E02DA01242E4D64427C
:1030B00006267642F71736196F41AF4214D811D061
:1030C00000F0F4F832003B00121A8B41002B15DCA3
:1030D000002B46D02000290000F026F902B080BC69
:1030E000B846F0BDA642EBD90026002700F0DEF876
:1030F00032003B00121A8B41002BE9DD00F0D6F8BC
:1031000032003B00121A8B41002B0ADB0023019393
:10311000164B3200009316483B00FFF7A7FE013024
:10312000D8D000233900B0469C46124A1248536A50
:10313000994204D8966A4645CCD29942CAD10668CB
:10314000EFF3108772B63368002BFCD0BFF35F8FAC
:103150000368BFF35F8F66461E6087F3108820BF49
:10316000E5E7002AB6D0C9E7FFFFFF7F89290010F5
:10317000181A00200040054078320020F0B557466C
:103180004E46DE464546E0B506000F0085B0EFF33B
:10319000058399468B46002B12D0384900204B6A94
:1031A000BB4206D38A6ADB1B591E8B41B2424041A7
:1031B000184305B0F0BCBB46B246A946A046F0BDD8
:1031C0002F4B9A46DB68984653461B78404603933C
:1031D00000F064F84246039B040004339B009B58B4
:1031E0000D001B1A39003000001BA941894510DC75
:1031F0000DD020BF214A0020536A5B45D9D3926A83
:10320000DB1B591E8B41B24240411843D1E7834238
:10321000EFD900F04BF832003B00121A8B41002B23
:103220001ADB00230193174B3200009350463B00FA
:10323000FFF71CFE011E0FDD104B5A6A5A451BD3C7
:103240009B6AB34216D35046FFF768FE0B4A002034
:10325000536A5B45ADD3D2E7084A0020536A5B4509
:10326000A7D30020926ADB1BB24240415A1E934111
:1032700018439EE75A45E6D120BFE4E700400540E9
:10328000181A00208929001010B5024A0248FEF7DA
:10329000BBFF10BD98450110BC2B00200300416A04
:1032A0000A00986A596A8A42FAD17047034B596AF0
:1032B0000A00986A596A9142FAD170470040054065
:1032C00070B504000D00174A536A1900966A536AD4
:1032D0008B42FAD13000190024184D41AB4216D868
:1032E00013D0104B2A005B6A9D4203D90D494B6AEB
:1032F0009342FCD3934207D10A4A02E0516A9942B1
:1033000002D1916AA142F9D370BDA642E9D9054B19
:103310005B6A1C005A1CEFD0012201246442E517AD
:103320005242E3E700400540064A536A9942FCD8FE
:1033300007D1044B02E05A6A914202D19A6A904244
:10334000F9D8704700400540F8B5DE464E4657466E
:103350004546E0B58B4605000A991800160000F0B6
:10336000FDFA0A9B6C001F02324B64199C46A400B4
:103370006444636881469F4200D967602B1FDBB2BB
:103380009846012B30D9C02380229B01E3181201FB
:103390001A60294BAD0059599A4600291BD1730177
:1033A000E026226853401E40802342465B01E3181A
:1033B0001E60012A30D9802380229B01E31812016C
:1033C0001A6053464A4667605A51F0BCBB46B24643
:1033D000A946A046F8BD586900F0C0FA0130430084
:1033E0001B18033BFDD2DAE75B46012BCBD1C02390
:1033F00003229B01E3181A60023AA3681A42FCD028
:103400007301E0262268AD0053401E4080230A4A23
:103410005B019246E3181E605A4621685140032220
:103420000A401A6001225B469A40A3681A42FCD007
:10343000C1E7C04600800040C02C0020F0B54646E1
:103440004F46D646C0B51F00344B44009C46241856
:10345000A4006444636888461600FF2B02D88023CA
:103460005B006360031FDBB29A46012B30D9C02397
:1034700080229B01E31812011A60294B85005959DB
:10348000994600291BD17301E026226853401E4053
:10349000802352465B01E3181E60012A30D9802345
:1034A00080229B01E31812011A6080235B00636095
:1034B0004B465F51E0BCBA46B146A846F0BD5869DC
:1034C00000F04CFA013043001B18033BFDD2DAE751
:1034D0004346012BCBD1C02303229B01E3181A6082
:1034E000023AA3681A42FCD07301E02622688500E4
:1034F00053401E4080230A4A5B019146E3181E6038
:1035000042462168514003220A401A600123424684
:103510009340A2681342FCD0C1E7C046008000403F
:10352000C02C0020014B8000C0587047C02C0020E8
:10353000F8B5040021481E0017000D0000F00EFA37
:103540000100380000F00AFA069B36041B031E43F4
:103550002368002B20DB1A4B1A49E3185A1E9341AB
:103560008022920194465B421B0B174A1B03634463
:103570001360164A13601F000A689743FBD1144B6F
:103580002560E2182123A06013602368002BFCDA79
:103590000823E6601360F8BD3F2322681340AB4266
:1035A000D9D1A3681B051B0D8342D4D1EE22E36859
:1035B000D2021340B342CED1EDE7C046001BB700A4
:1035C0000040FDBF08C0004000E0004000F00040A7
:1035D0000430000010B580241C4BE4051C6000285A
:1035E0001AD001231A4C18431A4BDC611A4C444080
:1035F0001C62596298628021144BC90519601748F2
:1036000017490860E021C9041960002A07D1802207
:10361000144B12061A6010BD0E4BD861EBE7530134
:103620009B1A9B009A18802312015B049A4209D2CC
:1036300013000D490B60074B5A608022094BD205DD
:103640001A60E8E7094B1A00F3E7C04600B00540EE
:10365000D3C007B0008005402D3FF84FFCFF0100AC
:103660000820014000A005402C310020FFFFFF0092
:103670008023024A9B000B43D362704700800540C1
:10368000002310B50100988A1B8B984710BDC046D7
:10369000162310B50100188802331B88984710BD07
:1036A000F8B54746CE4680B50F1E18D0142399466C
:1036B000043304000025012698464B4618884346EB
:1036C00021681B88984701C4431E98410135064074
:1036D000AF42F2D13000C0BCB946B046F8BD0126B9
:1036E000F8E7C046002370B504000D00988A03492E
:1036F0001B8B984729000300200098475542000083
:10370000002370B504000D00988A05491B8B98476B
:1037100003000020002C01DB0130A0402900984765
:1037200055420000AA23064A1B0113608D235B004B
:10373000D3600449044B19605368002BFCDA7047CE
:103740000040024000B0FA00006002407047C046EE
:1037500010B50148FEF740FDBC45011070B5074D9E
:10376000074EB54209D20024013E761BB60808CDAB
:10377000984723000134B342F9D170BD503A01108B
:103780008C3A0110054B064A06491A60064A074B57
:103790001A6010000B689843FBD1704700E00040AE
:1037A000BFCDFBFE08C00040FE7F3C0000F00040A3
:1037B000044BDB6C002B03D18022034BD2021A6036
:1037C0007047C046000011504C201150044A054B70
:1037D0001A60054A1368DB018033FBD17047C0468D
:1037E000FFFFFF0100F0004008C000404022034BF3
:1037F0009A675A671A67DA667047C04600F0014058
:1038000010B5FEF785FD10BD70B5044D044CA968D8
:10381000C022200000F006FDAC6070BD00ED00E0AD
:1038200000000020002310B5294C82B0A367FFF7E9
:1038300079FF0122274B1A60636C012BFCD1032214
:10384000254B1A60224A936B012BFCD10133009364
:103850000121224A22480433FFF76AFE0523012191
:103860000093204A2048FFF763FE00220221042033
:103870001E4BFFF7E3FD0022012105201C4BFFF743
:10388000DDFD0022002107201A4BFFF7D7FD0022A3
:1038900000210820174BFFF7D1FD8023DB000093A8
:1038A000002200210920134BFFF74EFD0022104B90
:1038B00000210620FFF7C2FD0420FFF733FE0E496A
:1038C00000F04CF801000020FFF7D2FE02B010BD5E
:1038D000008000403CB0004030B00040002F6859EC
:1038E00000800240008C864700C00240001BB700E9
:1038F00040597307006CDC0240420F00014804216C
:10390000014B1847301A0020A1360010124A936F5D
:103910009B0815D29066D166002905D0FFE7FFE726
:10392000FFE7516F106F704704B580210906C21779
:103930005140002800D0C84310F032F8002104BDE7
:10394000F0B5146E556E576F166FFFF7E3FF1466F0
:10395000556657671667F0BD000000D0114A936F97
:103960009B0813D210665166002905D0FFE7FFE7D8
:10397000FFE7516F106F704704B5002801D0002099
:10398000C04310F00DF8002104BDC046F0B5146E20
:10399000556E576F166FFFF7E5FF1466556657674C
:1039A0001667F0BD000000D094464A4A926F920814
:1039B000624601D228E0C046F0B5464E346E756EC0
:1039C000776F366F00F020F89446424A14665566C9
:1039D000576716676246F0BD94463E4A926F92085A
:1039E000624601D254E0C046F0B53A4E346E756E70
:1039F000776F366F00F04CF89446364A1466556679
:103A0000576716676246F0BD002B24DB11D00029F2
:103A10003EDA00B5C943404200D1013100F038F828
:103A2000C943404200D10131DB43524200D101334E
:103A300000BD002AEBD1002801D1002905D00020CB
:103A4000C90FC90701D1C043410800B50FF0A0FF5D
:103A50000022002300BD00B500290ADBDB435242EF
:103A600000D1013300F014F8C943404200D10131C4
:103A700000BDC943404200D10131DB43524200D175
:103A8000013300F005F8DB43524200D1013300BDA1
:103A9000002923D1002B18D1002A0CD0BC460D4F91
:103AA00038667A6600210023FFE7FFE7FFE77A6FB9
:103AB000386F67467047002801D00748010000B5FD
:103AC0000FF066FF0022002300BD02000B00002063
:103AD00000217047000000D0FFFFFFFF002B00D047
:103AE000BFE0130C28D1002AE7D080B4114F39660B
:103AF0007A66FFE7FFE730B4040C7B6F396F1B0475
:103B000023433B667A66FFE7FFE7FFE7C04684B2E0
:103B10007B6F3D6F1B0423433B667A66FFE7FFE73D
:103B2000C04600232C042D0C7A6F386F00196941B0
:103B3000B0BC7047000000D0F0B594460025140ECC
:103B400001D112020835140F01D112010435940F6E
:103B500001D192000235D40F01D152000135D40BAE
:103B60000134254F7C66254C3C660E0C93B2FFE772
:103B7000FFE7FFE73C6F6643360C7703BE467343AF
:103B8000DF0B5B04C01AB941130C7343DB18C91A6D
:103B9000CE086643360CB64493B273431F0F1B0125
:103BA000C01AB941130C73431F0B1B05C01AB9414E
:103BB000860D8F023E436643360C092D24DB520AE4
:103BC0007243801A7703460A6643360C16235B1B42
:103BD000DE40DF40BF1964466643821B70460435F1
:103BE00006330100D940A840C01900D30131A242D8
:103BF00006D20023F0BD0000000000D0FFFFFFFF51
:103C0000121B0130F3D3F1E709277F1BFE40644606
:103C1000A2B27243801A00D20139220C7243130CF3
:103C20001204821A99410B007046043513370100C3
:103C3000F940A840801900D30131002B02D1A242E3
:103C40000AD2F0BD013000D30131121BFAD2013B80
:103C5000F8D1A24200D2F0BD013000D30131121BD5
:103C6000F7E7F0B51C0C00D080E00CB400251C0A6E
:103C700004D11B02160E3343120208351C0B04D16B
:103C80001B01160F3343120104359C0B04D19B001A
:103C9000960F334392000235DC0B02D192185B4140
:103CA00001351C00971864410134464F7C66464C30
:103CB0003C660E0CFFE7FFE7FFE7C0463C6F66433C
:103CC000360C7703BE4697B27743C01B00D201394A
:103CD000C01B00D201399FB27743C91BC91B170C07
:103CE00077437E04FF0B801BB941CE086643360C38
:103CF0000C2D33DBB644120B1F053A431B0B97B256
:103D00007743C01B00D201399FB27743C91B170C00
:103D100077433E043F0C801BB941860D8F023E4322
:103D2000664329277F1BFE400C3D7746AF40BF19F5
:103D300030BCA2B2ABB272437343801A9941220CD9
:103D40007243130C1204801A994102000B000137D0
:103D5000001BA941F9D2781E0021F0BD0C277F1B62
:103D6000FE4077467F0BAF40FF19E0E700245D1C63
:103D700007D0144F7D663966FFE7FFE7FFE7FFE7EF
:103D80003C6F95B29EB265436643401BB141150C32
:103D90001E0C6543664336042F0C3E432D04401B26
:103DA000B141994204D202000B0020000021F0BD75
:103DB00001D19042F7D3801A994101349942F2D34C
:103DC000F6E70000000000D0FFFFFFFF4840414041
:103DD000484018B4134B5B68019308BD18B4114BED
:103DE0001B68019308BD94460F4A926F920805D252
:103DF000624618B40B4BDB68019308BD0A4AF0B564
:103E0000146E556E576F166F6246FFF7F2FF064A43
:103E10001466556657671667F0BD18B4014B9B686A
:103E2000019308BD98210020000000D0FFB550404C
:103E30004240504059404B40594000E0FFB5154FBB
:103E40004C00640D03D0BC4204D10C0314D80020F4
:103E5000090D09055C00640D03D0BC4204D11C03AC
:103E60000AD800221B0D1B0501264B4009D44B40EC
:103E700003D58B4200D18242FFBD9942FCD19042D2
:103E8000FFBD0B43DB1803431343F5D0C943491867
:103E9000FFBD0000FF07000000B5FFF7CFFF804126
:103EA00000BDC04600B5FFF7C9FF01D9002000BD25
:103EB000012000BD00B5FFF7B9FF01D9002000BD0A
:103EC000012000BD00B5FFF7B1FF804100BD01201A
:103ED00040054A00121804D85A00121801D80020D0
:103EE00070470120704700000021002805D170476D
:103EF000C1174840401AFAD0C90713B5064B1B68D2
:103F000098470CBC441CA2401005120B0349091B26
:103F100009051943114310BD743100201F0400002E
:103F200010B54C00620D8023D218DB00D21A5B055D
:103F30007E2A10DD9E3A13DACC170903490819438B
:103F40005242D140640001341532202A05DAD040B3
:103F50000843604310BD002010BD0846604310BDFB
:103F6000C80FC018013810BD18B4024B5B6A01932A
:103F700008BD00009821002018B4024BDB6F0193AC
:103F800008BD00009821002018B4024B9B690193E2
:103F900008BD00009821002018B4024B9B6D0193CE
:103FA00008BD00009821002010B50148FEF714F963
:103FB000C8450110132370B51D78012D19D014DDEB
:103FC0001D48FFF765FB06001C48FFF761FB1C4C12
:103FD00080223100200000F025F9022D06D019487A
:103FE000FFF74EFB184B186070BD154C174BA364C0
:103FF000F5E7174B124C23606360A360E360236115
:104000006361A361E36123626362A362E36223638A
:104010006363A363E36323646364A364E36423656A
:104020006365A365E36523666366A366E36623674A
:104030006367A367E367D9E7534400005346000072
:10404000982100204C3300007431002055400010AE
:10405000A93F001007B5604601880A0A0230DF2A2E
:10406000FAD1C9B2820804D3028840880004104300
:1040700000E00068014A5050039007BD98210020DD
:1040800051434343C9188C46110C83B24B4310B4BF
:10409000040C614392B280B2504362431C041B0C77
:1040A000001910BC59411304120CC018514161444D
:1040B000704700004840414048400E4B5B6818473D
:1040C0000C4B1B6818470C4A936F9B0802D2094B94
:1040D000DB681847F0B5146E556E576F166FFFF713
:1040E000F6FF054A1466556657671667F0BD014B23
:1040F0009B68184778310020000000D0C10FC90725
:1041000000D54042002817D0F44603B40B4B1B687F
:10411000984706BC81409E384042803107D20B064A
:1041200007D04900490AC0051043084360470130E1
:10413000F8E7490A8902F5E770470000743100206A
:10414000014BDB6F184700007831002010B50148A3
:10415000FEF742F8EC3F0110132310B510481C780D
:10416000FFF796FA0100012C0AD003DD80220D48EA
:1041700000F058F80C48FFF783FA0C4B186010BD9C
:10418000084C5422200000F04DF8220008498032EB
:104190002368002B00D1216004349442F8D1E9E770
:1041A00053460000783100204C3300007431002069
:1041B0004D41001010B504000EF04CFD002804D055
:1041C000034B04199C4200D810BD0248FEF704F8C6
:1041D00000000420E045011070B505000C000EF051
:1041E000D9FC6C43002804D0034B04199C4200D82E
:1041F00070BD0248FDF7F0FF00000420E04501100B
:1042000010B50EF031FD10BD01480421014B1847D7
:10421000401A0020A1360010014B1B68184700000F
:10422000401A0020014B5B6818470000401A00202C
:104230009A4200D2885470477047C046F8B5574636
:10424000DE464E464546E0B599460A9B07009A462B
:104250000D9B884693460B9C9B073BD10C9B9C4235
:104260003DD21E1B0B9415000C005E442A004B46E9
:10427000013521002020B847B542F7D1A0460B9C5C
:10428000002C20D0454636195346321B013C185DA0
:1042900029004B46B847002CF6D12B003500984634
:1042A0000D9B9B070FD55B46EC1A0C9BA3420AD9CA
:1042B000464698462A004B46310020200134B84734
:1042C00001354445F6D32800F0BCBB46B246A946AA
:1042D000A046F8BD16001500002CD3D1E0E716006B
:1042E0001500002CCED1EEE7F0B54546DE46574628
:1042F0004E46E0B585B09C4610AB1B78149F9346A4
:1043000098460F9C129E139DBB074CD4002D42D1A2
:10431000B44248D201233B4099460E9B013B9A464A
:10432000302304E0524601341355A64201D9202C13
:10433000F8D14B46002B00D183E00E9B013B994600
:104340003023A54205D82EE04A4601341355AC422D
:1043500029D0202CF8D1FB060CD57B0554D4A642DD
:1043600063D0A54261D0119B102B50D0022B57D0A7
:10437000202C32D1202301930E9B5A4600930397A1
:1043800063460295FFF75AFF05B0F0BCBB46B24644
:10439000A946A046F0BD01233B40994601233B427C
:1043A0002AD1B442B9D3FB061CD57B05DBD4002C43
:1043B000D5D1119B102B5BD0119B022B6BD03023DE
:1043C00001240E9A13704346002B10D17B073ED573
:1043D0002B260E9A631C1655CDE723000134302698
:1043E0000E9AD654202CC5D04346002BEED02D2655
:1043F0000E9A631C1655BEE74346002B2FD0013D95
:10440000B44200D289E798E7119B102BB2D1BB06CA
:1044100037D5202CAED058230E9A13550134A7E778
:10442000202CA7D02300013407E0631E012CC0D04C
:10443000119A102A31D0022AD1D162260E9AD6546E
:1044400096E7FB06CED57B0500D488E78BE72300F3
:104450003E0790D520260E9A013316558BE70C2384
:104460003B405A1E9341ED1AB44200D255E764E72F
:10447000BB060ED478230E9A022413703023537097
:10448000A1E7202C00D175E778230E9A135501344B
:104490006EE75823EFE76033EDE70E9AA61E9146CC
:1044A0004E44BA0602D55822327098E7782232700C
:1044B00095E7C04610B5002800D110BD01F022FDDF
:1044C000FBE7C0460B0010B5002802D049681B6806
:1044D000984710BDF0B55746DE464E464546E0B516
:1044E00095B083460F00924698461E9A1F9B100077
:1044F0001900209EFFF7EBFC002800D0EAE11E988F
:104500001F990122C54B5242FFF7C6FC002800D07C
:1045100014E11E981F990122C14B5242FFF7D2FCB1
:10452000002800D0E9E01E981F990022BD4BFFF73C
:10453000C9FC002800D0C8E01E981F990022BA4B81
:10454000FFF7AAFC002800D0BFE01E981F990022A8
:104550000023FFF7A1FC002800D0E4E000230B9328
:10456000229B5B0500D406260024302307E0172198
:1045700006AA013452181355013E202C01D0092EF1
:10458000F5D81E981F99FFF7CBFCA84BF2009B189B
:104590001A685B68050008920993FFF7A9FC0200FE
:1045A0000B001E981F99FFF714FC089A099BFFF750
:1045B00034FC06900791FFF7D7FC8146FFF794FC87
:1045C00002000B0006980799FFF703FC0022984BA6
:1045D00006900791FFF776FC002800D10DE101233A
:1045E0009C46E1444846FFF77FFC02000B00089818
:1045F0000999FFF757FC002802D00023994601359E
:10460000002E00D1D9E006954D46B94614E006AA21
:10461000944617230A216344280001341F19FFF729
:104620009DF93031397028000A21013EFFF796F9D3
:10463000092D00D817E10500202CE8D14F46069D32
:1046400020240CAE06AA17239446634499465B4681
:10465000B34606930FE04B4628000A210134E618C2
:10466000FFF754F93031280031700A21FFF74EF975
:10467000051E00D1E4E0202CEDD1069B5E469B4652
:104680000323229A1340012B18D1219B002B15D014
:104690000B9B002B00D1FDE0219B013B2193202BA4
:1046A0000CD93023219A07E0172006A901340918F4
:1046B0000B55944200D3CCE0202CF5D1229B0194E1
:1046C0000393219B0096029322E0229B524604937F
:1046D000219B3900039358461E9B1F9C0296009312
:1046E0000194434600F04AF90400200015B0F0BCE4
:1046F000BB46B246A946A046F0BD229B5B070FD43D
:1047000003224C4B2299019203912199009302912B
:104710004346524639005846FFF790FD0400E4E74F
:104720000422454BEEE71E9A1F9B00200021FFF755
:1047300050FB01231E901F910B9311E7229B5446BF
:104740009B0711D1219B042B0ED9219B55469C46DA
:104750005E46043C64442A0043460135390020206B
:10476000B047A542F7D1B346344D26002B1F9946DA
:104770005B46A3461C003200E87843463900013D01
:10478000A04701364D45F6D123005C469B46229B4F
:1047900004349B07A9D55346219AE31A9A42A4D917
:1047A0005E4615002200434639002020B04753469C
:1047B0000134E31A9D42F5D897E72800FFF798FBEC
:1047C00002000B001E981F99FFF703FB0022184BF5
:1047D00006900791FFF760FB0CAE002800D031E790
:1047E000069807990022124BFFF76CFB002800D0B7
:1047F00028E7012301359D4324E700220698079905
:104800000B4BFFF749FB002800D0F9E64B46002B85
:104810005CD101239C46E144F2E6C046FFFFEFFF76
:10482000FFFFEF7F65CDCD4165CDCDC1204D01109E
:104830000000E03F384601103046011040460110AC
:10484000069B5E469B460323229A1340012B00D110
:1048500081E0202C00D131E70B9B002B27D02D23AA
:10486000335501342AE74F46069D202C00D1E7E658
:104870003022331907E0172006A9013409180A5518
:10488000202C00D1DCE6A342F5D12E220CAE01345F
:10489000F254D7E60C23229A134257D0219B013BB6
:1048A0002193A34200D9FCE6202C00D106E7229BED
:1048B0005B0703D52B2333550134FFE6229B1B07EF
:1048C00000D4FBE6202333550134F7E6DB0700D4A0
:1048D00096E69EE7229B55469B0711D1219B032B11
:1048E0000ED9219B54469C465E46033D65442200FA
:1048F0004346013439002020B047AC42F7D1B346DB
:10490000B9465F461C4EEC1C2A00B0784346494627
:104910000135B847013EAC42F6D1229BBB464F461B
:104920009B0700D4E1E65346219AE31A9A4200D845
:10493000DBE65E4615002200434639002020B047E2
:1049400053460134E31AAB42F5D3CEE6219BA34292
:1049500000D9A6E6B2E6219B002B00D179E70B9B9C
:10496000002B97D0219B013B21939C4200D298E6DB
:10497000202C00D073E7A1E63C460110F0B5DE46DE
:1049800057464E464546E0B599B081468B4692461D
:104990009846229A239B10001900FFF798FA0028E6
:1049A00000D0CAE0229823990122824B5242FFF79D
:1049B00089FA002800D0C0E02298239901227E4B7A
:1049C0005242FFF769FA002800D0B6E022982399F6
:1049D00000220023FFF760FA002800D0C9E1229BE3
:1049E000239C08930994089809998023269ADB0050
:1049F0001A400D928022269C1201144022000B9432
:104A0000269C07000E001C4200D0ADE00B000343C3
:104A100000D0D5E0002A00D00AE222000633249319
:104A2000022313400C930223134200D002E2259B81
:104A3000042B00D20FE2043B0B93002304250A93BE
:104A40000022229823990023FFF726FA002800D09D
:104A500003E25A4B269A134004930B9B0393249B27
:104A60000293089B099C0093019459464346524681
:104A70004846FFF72FFD02002020269B1F270340FA
:104A800059424B415B421840531C089359464346D8
:104A90004530C8470A9AD317D4185C40D30F0A93FD
:104AA0006B1E0B9308AB9C460025674401E0202D4C
:104AB0000FD020000A21FEF751FF01357E19303159
:104AC000317020000A21FEF749FF26000400092E5C
:104AD000EDD8052306930B9B5946059300230493B9
:104AE0000A3303930A9B4846029310AB0093089A3B
:104AF00043460195FFF7F8FB0C9B002B2DD0534646
:104B0000C41A259BA34228D94D465F4681461E0004
:104B1000534639001A19202043460134A847A642BB
:104B2000F6D8534648462599C21A013200239142CD
:104B300000D386E1013018180FE0269B0493259BD3
:104B40000393249B0293229B239C0093019443464E
:104B5000524659464846FFF7BDFC19B0F0BCBB466B
:104B6000B246A946A046F0BD01432BD10B9B2200C3
:104B7000002B00D154E700230A93249B0A9A0024B7
:104B8000934200DD85E12298239900220023FFF75C
:104B900083F9002800D035E1269B084A02941A4088
:104BA0008023DB0013430493259B0393089B099CFC
:104BB000CBE7C046FFFFEF7FFFFFEFFFFFF7FFFFF1
:104BC00006232493B44B70009C46400D6044FFF7CD
:104BD0008FF9B24AB24BFFF720F9B24AB24BFFF756
:104BE000FDF83603B14B360B334304000D0038009B
:104BF00019000022AE4BFFF7ECF8AE4AAE4BFFF7C0
:104C00000CF902000B0020002900FFF7E7F8FFF77E
:104C100087F90A90FFF76CF9A84AA94B04000D0028
:104C2000FFF7FBF80022A74BFFF7D8F8FFF778F95A
:104C3000A54A0600A54B20002900FFF7EEF8040066
:104C400030000D000C96FFF753F9A14AA14BFFF776
:104C5000E4F802000B0020002900FFF7BAF8020078
:104C60000B0006000F00FFF7D8F8320004000D001B
:104C70003B0030003900FFF7B1F800220E900F9191
:104C8000954B20002900FFF7AEF80022934BFFF769
:104C9000A5F802000B0020002900FFF7A4F800226D
:104CA0008F4BFFF79BF802000B0020002900FFF755
:104CB0009AF80D008021040032003B000020C90555
:104CC000FFF787F802000B0020002900FFF786F8A5
:104CD00002000B000E980F99FFF785F80022734B26
:104CE000FFF77CF87F4B0C9C9C4664440022230514
:104CF000FFF793F806000F0002000B0008980999CF
:104D0000FFF7CAF800280AD00A9B3000013B39009F
:104D10000A930022714BFFF766F806000F000A9A0B
:104D2000330063323900C62A12D80222269804259D
:104D300010400B9A0C90002A25D1259B042B05D9F5
:104D4000002800D0A1E0259B043B0B93042541E003
:104D50000222269810400B9A0C90002A12D1259B13
:104D6000052B76D9002872D1259B0525053B0B9391
:104D700034E0802212069446229B0893239B6344CE
:104D8000099330E605250B4300D1F6E6089809990A
:104D9000554A564BFFF78EF8002808D00898099915
:104DA0000022534BFFF778F8002800D0E5E6249B5B
:104DB000002B1CD00D9B002B19D0249B013B24936E
:104DC000259BAB4204D90C9B002B5AD002230C9399
:104DD00000230B930A9B002B00D131E60898099918
:104DE00032003B00FEF7FFFF0890099128E6259B63
:104DF000AB42EDD90C9B002B43D000230B93023325
:104E00000C93E7E78020269B3A4A00061A4080234D
:104E100084460294089C099D2900DB0013430493F7
:104E2000259B6144220003930B00009201938EE6C0
:104E30000524A8E600230B930A93023304250C9360
:104E4000FEE553468C46013B63441B1A72E602237F
:104E50000C930525C2E70423EDE58020089E099FF9
:104E6000000639008446269A224B6144134004937D
:104E70000B9B32000393249B02930B00009201933F
:104E8000F3E5259B5B1B0B93A4E7022304250C93FE
:104E9000A0E79C1A013C76E601FCFFFFFB799F50DE
:104EA0001344D33FB3C8608B288AC63F0000F03F4D
:104EB0000000F83F61436F63A787D23F71A3790970
:104EC0004F930A400000E03F1655B5BBB16B02405E
:104ED000EF39FAFE422EE63F00002C40000024404D
:104EE00000001840FF0300002D431CEBE2361A3F80
:104EF00080842E41FFF7FFFFF0B5DE4657464E4651
:104F00004546E0B5A5B01E002E9B92460C93CD4AB7
:104F1000CD4B80468B461A60002900D1EAE1002380
:104F200030789946002800D1ECE1C84B4C460B93F1
:104F3000C74B454657460E930AE0631C984622002D
:104F40003B005946A84744463078002800D187E006
:104F500001362528F1D108239A46043B9946023BA5
:104F60009846013B00229C460D943078711C03004A
:104F7000203BDBB2102B03D80B9C9B00E3589F46D1
:104F80000300303B89460D9C092B3AD900239846F3
:104F90002A2800D1C1E000239A462E284BD00300D6
:104FA000683BDBB2122B1ED80E999B00CB589F4654
:104FB00063460E001A43D8E743460E001A43D4E76F
:104FC0004B460E001A43D0E710230E001A43CCE7DD
:104FD00053460E001A43C8E780235B001A43FF3B89
:104FE0009C467078E1444E4667284FD82428A4D9BF
:104FF0000300253BDBB2422B9FD896499B00CB5840
:105000009F46002394461E0000E00131B3009B1927
:105010005B001E180878303E0300303B092BF4D9A2
:105020000123624689469C460023B0469A460E00FC
:10503000E1442E28B3D13021802049428C46C00063
:10504000024370784B4684446146092900D86CE1DC
:105050002A2800D17AE101239C464E46E1449EE78E
:10506000A146A846BA46CA4503D801235B42534429
:10507000994653464A4659460020C047200025B06D
:10508000F0BCBB46B246A946A046F0BD0300693B52
:10509000DBB20D930F2B00D94FE7012199408C46CD
:1050A0006D49894661464B4619400F916346494612
:1050B0000B4200D028E10D9B0A2B3AD0072B00D0E1
:1050C0003BE70C9B190008C98846002B00D14BE137
:1050D00021200243914614A98C461F220F216244CD
:1050E0008C4651460D950C91A24615000F9902E091
:1050F00020290CD0130064461C4020003730092CB6
:1051000000D80738013168541A090F2BF0D80C9BCE
:1051100054460D9D9A460F9133E10C9B02CB884675
:10512000002947DB0C9301239C4670784E46E144EE
:1051300031E70C9B02CB14935346002B00D138E18E
:105140009C4608780B000C908C44002801D100F09C
:1051500098FC89466146944603E05A780133002A58
:1051600001D08B42F9D1494662465B1A0C900F93ED
:10517000530500D520E10223180010400D90134282
:1051800000D1CBE30D930B1BB1469A465E460C98BB
:1051900022003B003100A84753460134185D002827
:1051A000F6D1B3464E460D9B002B00D0C7E1149BB1
:1051B0000C93C9E60C9301239C46283849420243CC
:1051C000884670784E46E144E5E670786C2800D158
:1051D0007FE180235B001A43FF3B9C46E14402E7EA
:1051E00080239B001A4301239C467078E144FAE631
:1051F0007078682800D173E180231A437F3B9C4676
:10520000E144F0E6672800D103E1472800D15AE1E4
:10521000452800D15AE10492072142460C9B039293
:10522000073352468B43190002920CC928000092A2
:1052300001930C9122003B005946FFF79FFB0400AD
:1052400082E6C046F94E001028310020844B011040
:10525000C84B0110144C011041900000462800D1A9
:10526000DBE00492072142460C9B0392073352462F
:105270008B43190002920CC92800009201930C91F3
:1052800022003B005946FFF725F904005CE6631C49
:10529000984622003B0059462520A847444653E63D
:1052A0000C9B04330D93631C9946920700D422E1B2
:1052B0000C9B2200187859463B00A84743464444BB
:1052C000012B00D885E23300B8462E005F4625004A
:1052D0004C46994622004346013439002020B0470D
:1052E000AC42F7D12C00BB46350047464E460D9BDD
:1052F0000C9329E6DB4B307898460023994600282A
:1053000000D012E60024AEE66F2800D188E000D875
:105310000BE31023782800D1CFE09A430A239C4660
:1053200000230F930A330D9380E05646B10089198C
:10533000490001330E181878303E01003039092930
:10534000F4D9B2461E000133994628E60C9B02367A
:1053500002CB8A46C9435046C917084082460C937F
:105360003078731C99461AE61023100098431133C5
:105370001843814680201300C0000340024200D140
:10538000A9E64B460693082305935346049310233E
:105390000393002302930F9B220001931CAB009305
:1053A00059463B002800FEF79FFF434604000C933C
:1053B000CAE501235B42C3E60F9B534501D953461F
:1053C0000F930223180010400D90134200D1B7E153
:1053D0000D93D1460B1B9A463300A1442E002200A8
:1053E0004D460C98B9465F469B4608E04B4639004F
:1053F000541CB0475346185D002877D022009542D0
:10540000F4D15B46BB464F46A94635004C461E00CC
:10541000C9E680231B011A43FDE620231A4320E737
:1054200008239C4600230F9308330D93802311001B
:10543000DB0019401A4200D116E10D239A431000F7
:10544000802302009B001A401492184200D0C2E14F
:10545000802302005B001A4091460C9A04320F929E
:10546000184200D0B7E2430600D59FE1030600D4FE
:1054700019E30C9B1B880993002B00D0FCE110332F
:105480009843002900D1F7E100239946434605934C
:10549000534604930D9B069003930023D2E05828B3
:1054A00008D0622867D102239C4600230F93023361
:1054B0000D93BBE720231A43103B9C4600230F9318
:1054C00010330D93B2E780231B011A4320231A43A4
:1054D000A1E6C0239B001A43F31C9946B07882E5ED
:1054E000C0231A43F31C9946B0787CE535005E462C
:1054F000BB464F4657E64346012B00D863E1631E87
:1055000043449A463300B9462E005F4655469B46B3
:10551000A24622004B46013439002020B047AC425D
:10552000F7D135005E46BB464F46A14654460C9B1C
:105530004A46187859463B004444A847D7E6A14656
:105540000F9B984500D832E64444E41A3300B8462D
:105550002E005F4625004C46994622004346013402
:1055600039002020B047AC42F7D12C00BB463500B3
:1055700047464E461BE680231000DB0018401A42C7
:1055800000D10FE1112118008A430D920D9A80235A
:1055900011009B0019408C461A4269D180231100EA
:1055A0005B00194089460C9904310F911A4200D0D2
:1055B000CAE113005B0600D5F0E013001B0600D41F
:1055C00059E20C9B00229B5ED9175A184A4092B2AE
:1055D000D90F0C91002B00D1F9E1100014AA9446C8
:1055E00042461F23149252466344A84616944D46E1
:1055F0000400B946B2461F00159201E0202D0FD0DD
:1056000020000A21FEF7AAF901357E1930313170E8
:1056100020000A21FEF7A2F926000400092EEDD889
:10562000149B4F46A94645469846159B56469A46B2
:10563000169C0D9B069343460593534604930A23F9
:1056400003930C9B02934B4601931CAB22000093E7
:1056500059463B002800FEF747FE0F9B04000C93C1
:1056600072E4C046394200100C239A431000E7E66A
:1056700007220C9B07339343013294469C446246B5
:105680000C920CCBD90F0F911100194300D191E06E
:10569000D9171391129151401091139959401191BA
:1056A00010981199129A139B801A99411090119198
:1056B00014AA0023944642469946149252461F3338
:1056C0006344A846B24616944E46109C119DB946B6
:1056D00015921F0001E0202E10D0200029000A2280
:1056E0000023FEF779F9013630322B00BA550D0050
:1056F00022000400002BEED1092AECD8149B109450
:10570000119545469846159B4F46B14656469A46D2
:10571000169C0D9B069343460593534604930A2318
:1057200003930F9B02934B4601931CAB2200009303
:1057300059463B002800FEF7D7FD0400FFF704FCA4
:105740000F9B984500D8C1E18023DB000D934346B1
:105750000F9A1B199B1A994633002E004D46B946E5
:105760005F469B460C9122004B46013439002020B5
:10577000B047AC42F7D143460C9901330F930B78F5
:1057800035000C935E46BB464F46002B00D10EE51C
:105790000D9B002B00D1F6E4002319E60C9B1B782F
:1057A0001A0015E710239A430D92EFE60C9B1B7825
:1057B000099361E6002399460028AAD1002200231C
:1057C0001092119374E70C9B2200187859463B0005
:1057D000A8474C468BE50C9AFA3BFF3B07329A43AD
:1057E0000133994691444B460C93136852681592C5
:1057F0001A4306D11032904300220992002900D0AA
:1058000081E06122810600D54122D2B20A9214AA17
:1058100091460A9A00210A3A149242461792524639
:1058200018925A460991B3461F311E000F9B4944F6
:10583000BA4619941A950024674698468946159DDC
:1058400016901B920AE03032D2B24B4601341A5500
:10585000A8454AD0202C4AD006000D003A0000236B
:1058600030002900FEF7B8F8D2B2092AEBD9149B10
:105870009C466244D2B2E8E76123820600D5412308
:10588000DBB20A3B0C93434614A91F228C461593A6
:1058900053466244A046B2464C461797A9461700A5
:1058A000099D0D9E1490169308E03033DBB201344D
:1058B0003B55B5420ED3202C0CD0050031002800FA
:1058C000FEF74CF8CBB20929EFD90C9A9446634401
:1058D000DBB2ECE7159B4D46A14644469846169B25
:1058E000564614989A46179FD0E5B742B2D9179BEF
:1058F00057469846189B5E469A461B9B09949B46C2
:105900001698199C1A9D43460593534604930D9B84
:105910000690039300230293099B05E70F9B98458C
:1059200000D914E701330F932DE41023110099439C
:105930000D91692800D0BAE080231000DB001840E8
:105940001A4200D122E61DE60C9B1B68DA0F1100FB
:10595000002B00D18CE0DA179818504014AA914619
:1059600042461F23149252464B44A046A94616971E
:1059700004006546B2461F000C91159201E0202DEF
:105980000FD020000A21FDF7E9FF01357E193031E3
:10599000317020000A21FDF7E1FF26000400092EE6
:1059A000EDD8149B444698460C9BAC461900159BB9
:1059B00056464D469A46169F0D9B029106934346C6
:1059C0000593534604930A23039363463CE6002859
:1059D00000D02EE602E60C9B1B689946002B03D1F3
:1059E00010339843002938D16123820600D5412322
:1059F000DBB20A3B0C9343461693534614A91F226D
:105A00008C4617932B006244A0464D46B246189729
:105A100099461700149C0D9E159008E03033DBB2B8
:105A200001343B55B5420ED3202C0CD0050031007B
:105A30002800FDF793FFCBB20929EFD90C9A9446C1
:105A40006344DBB2ECE7169B149444469846179BDC
:105A500056464D469A461598189F43460593534619
:105A600004930D9B0690039300230293149BEBE594
:105A70000028A1D172E70C9B1B68D9175A184A401D
:105A8000A6E580231000DB0018409C460F901A42C8
:105A90000FD00220030013400F93104219D00023AF
:105AA000A1460F934CE50C9B1B680993E4E40A00A4
:105AB00034E40223180010400D90134200D03EE55C
:105AC0004346002B00D042E6FFF771FB01330F93F2
:105AD0007FE463460D93F3E70EB4012230B584B042
